:100003004443204D6F746F722044656D6F0032302E
:0800130032332E362E32340088
:100E09001209F6120FCD7BFF7A007903750D10E4F4
:100E1900FDFF120E4D7BFF7A007911750D107D03D0
:100E29007F06120E4D12107E752C00752D32121090
:100E3900A17FD07E0712101C1210AC7FD07E071242
:040E4900101C80EA0F
:10001E000000000000000000002F0000000007009C
:10002E00070000147F147F1400242A7F2A12006216
:10003E0064081323003649552250000005030000C2
:10004E0000001C224100000041221C000014083E4A
:10005E0008140008083E0808000000A06000000810
:10006E000808080800006060000000201008040264
:10007E00003E5149453E0000427F40000042615122
:10008E004946002141454B31001814127F100027BC
:10009E0045454539003C4A4949300001710905037F
:1000AE0000364949493600064949291E00003636B0
:1000BE000000000056360000000814224100001413
:1000CE0014141414000041221408000201510906F0
:1000DE0000324959513E007C1211127C007F494971
:1000EE004936003E41414122007F4141221C007FA2
:1000FE0049494941007F09090901003E4149497AB0
:10010E00007F0808087F0000417F41000020404129
:10011E003F01007F08142241007F40404040007F95
:10012E00020C027F007F0408107F003E4141413ED9
:10013E00007F09090906003E4151215E007F091921
:10014E0029460046494949310001017F0101003F1E
:10015E004040403F001F2040201F003F4038403F9E
:10016E000063140814630007087008070061514902
:10017E00454300007F41410000552A552A55000095
:10018E0041417F0000040201020400404040404013
:10019E00000001020400002054545478007F4844AB
:1001AE00443800384444442000384444487F0038E2
:1001BE005454541800087E0901020018A4A4A47C0B
:1001CE00007F080404780000447D400000408084D5
:1001DE007D00007F102844000000417F4000007C1D
:1001EE0004180478007C0804047800384444443829
:1001FE0000FC242424180018242418FC007C080475
:10020E00040800485454542000043F444020003C4D
:10021E004040207C001C2040201C003C4030403CD4
:10022E00004428102844001CA0A0A07C0044645464
:10023E004C441414141414140000000000000000A8
:10024E000000000000000000000000F800000000A8
:10025E00000000333000000000100C06100C0600E9
:10026E00000000000000000040C07840C078400050
:10027E00043F04043F040400007088FC08300000B2
:10028E00001820FF211E0000F008F000E01800000A
:10029E0000211C031E211E0000F0088870000000C3
:1002AE001E2123241927211010160E000000000015
:1002BE000000000000000000000000E01804020032
:1002CE00000000071820400000020418E0000000A3
:1002DE000040201807000000404080F080404000A1
:1002EE000202010F01020200000000F000000000F7
:1002FE000101011F010101000000000000000000CB
:10030E0080B070000000000000000000000000003F
:10031E0000010101010101010000000000000000C8
:10032E000030300000000000000000008060180463
:10033E00006018060100000000E010080810E00040
:10034E00000F102020100F00001010F80000000009
:10035E000020203F20200000007008080888700050
:10036E0000302824222130000030088888483000D0
:10037E000018202020110E000000C02010F80000F0
:10038E0000070424243F240000F808888808080089
:10039E000019212020110E0000E01088881800009E
:1003AE00000F112020110E0000380808C838080070
:1003BE000000003F000000000070880808887000F0
:1003CE00001C222121221C0000E010080810E00071
:1003DE000000312222110F00000000C0C0000000FA
:1003EE00000000303000000000000080000000001F
:1003FE000000806000000000000080402010080017
:10040E0000010204081020004040404040404000DF
:10041E0004040404040404000008102040800000BA
:10042E000020100804020100007048080808F000BF
:10043E000000003036010000C030C828E810E0008F
:10044E000718272423140B000000C038E00000001A
:10045E00203C23020227382008F888888870000084
:10046E00203F202020110E00C03008080808380058
:10047E00071820202010080008F808080810E000CF
:10048E00203F202020100F0008F88888E808100070
:10049E00203F20202320180008F88888E808100044
:1004AE00203F200003000000C0300808083800007C
:1004BE0007182020221E020008F808000008F8087D
:1004CE00203F210101213F20000808F80808000004
:1004DE000020203F2020000000000808F808080037
:1004EE00C08080807F00000008F888C028180800AF
:1004FE00203F20012638200008F8080000000000E8
:10050E00203F20202020300008F8F800F8F80800DE
:10051E00203F003F003F200008F830C00008F808D8
:10052E00203F200007183F00E01008080810E000E8
:10053E000F10202020100F0008F808080808F000FF
:10054E00203F210101010000E01008080810E00022
:10055E000F18242438504F0008F8888888887000B7
:10056E00203F2000030C3020007088080808380057
:10057E000038202121221C00180808F8080818004D
:10058E000000203F2000000008F808000008F808CE
:10059E00001F202020201F000878880000C838087F
:1005AE00000007380E010000F80800F80008F800F7
:1005BE00033C0700073C0300081868808068180891
:1005CE0020302C03032C30200838C800C83808000F
:1005DE000000203F2000000010080808C83808005E
:1005EE002038262120201800000000FE0202020002
:1005FE000000007F40404000000C30C000000000B2
:10060E00000000010638C00000020202FE000000D9
:10061E00004040407F00000000000402020204007F
:10062E0000000000000000000000000000000000BC
:10063E0080808080808080800002020400000000A4
:10064E00000000000000000000008080808000009C
:10065E000019242222223F2008F80080800000008A
:10066E00003F112020110E0000000080808000004D
:10067E00000E112020201100000000808088F8005C
:10068E00000E112020103F2000008080808000008E
:10069E00001F222222221300008080F088888818F2
:1006AE000020203F202000000000808080808000FD
:1006BE00006B94949493600008F800808080000092
:1006CE00203F210000203F2000809898000000006D
:1006DE000020203F2020000000000080989800009D
:1006EE0000C08080807F000008F8000080808000BD
:1006FE00203F24022D302000000808F800000000E2
:10070E000020203F2020000080808080808080009C
:10071E00203F20003F20003F80800080808000002E
:10072E00203F210000203F200000808080800000BC
:10073E00001F202020201F008080008080000000ED
:10074E0080FFA12020110E0000000080808080001C
:10075E00000E112020A0FF8080808000808080000D
:10076E0020203F212000010000008080808080003A
:10077E000033242424241900008080E080800000AF
:10078E000000001F202000008080000000808000FC
:10079E00001F202020103F2080808000008080805D
:1007AE0000010E30080601008080008000808080ED
:1007BE000F300C030C300F00008080008080800012
:1007CE000020312E0E31200080808000008080803D
:1007DE0080818E70180601000080808080808000ED
:1007EE000021302C2221300000000000807C02020B
:1007FE0000000000003F404000000000FF0000002D
:10080E0000000000FF0000000002027C80000000DB
:10081E000040403F000000000006010102020404F7
:10082E00000000000000000000FE225A86088868C2
:10083E00180FE8080808080000000000000000007B
:10084E00000000000000000000FF04080720110D4A
:10085E0041817F010509300000000000000000000A
:10086E0000000000000000001060028C20908E88B6
:10087E0088FF888888888000000000000000000043
:10088E00000000000000000004047E010000FC4493
:10089E0044444444FC00000000000000000000003E
:1008AE0000000000000000000008884828180FE82B
:1008BE0008080808080800000000000000000000FA
:1008CE000000000000000000002011090541817F9A
:1008DE0001010509112000000000000000000000C9
:1008EE000000000000000000202424A4FE2322208B
:1008FE0000F8080808F800000000000000000000E2
:10090E00000000000000000010080601FF010600B4
:10091E00003F1010103F000000000000000000001B
:10092E00000000000000000080A0908E888888FFE4
:10093E008888888888808000000000000000000001
:10094E00000000000000000020201008040201FF3B
:10095E00010204081020200000000000000000002A
:10096E000000000000000000008060F84740444492
:10097E00447F444444444000000000000000000056
:10098E000000000000000000010000FF4040444451
:10099E00447F444444444000000000000000000036
:1009AE000000000000000000008060F807001CE05E
:1009BE00010600E01E000000000000000000000024
:1009CE000000000000000000010000FF0080402039
:1009DE00130C132040808000000000000000000077
:0809EE00000000000000000001
:0910B700D2A5D2A3C2A3C2A52256
:0710C900D2A5C2A3D2A322AD
:0B104200120F6A12104DAF04120F6A6B
:05104D00D2A5C2A5229E
:070F6300AC071210B77F7804
:100F6A00C2A5E4FEAD07530580BD8004D2A380026A
:0E0F7A00C2A3EF25E0FFD2A5C2A50EBE08E679
:010F88002246
:0E106200120F6312104DE4FF1210420210C96B
:0E107000120F6312104D7F401210420210C981
:100F0B00E924B0FFE433FEE4FDFC120F26E4FDFC04
:0B0F1B00FFFE120F267F10E4FDFCFE1D
:100F2600AB07AA06ED4C6003021070AF0312106205
:010F36002298
:020F89008F30A7
:100F8B00E4F9120F0BE4F531AF307E007D017C00EC
:100F9B00120F260531E531C3948040EC09B908E204
:010FAB002223
:100F3700A907ED24B0FFE433FEE4FDFC120F26E918
:100F470054F0C4540F7E004410FFE4FDFC120F263A
:0C0F5700E9540FFF7E00E4FDFC020F26B1
:101005007F8D120F22E4FDFC7F14FE120F26E4FDF6
:07101500FC7FAFFE020F2675
:10103100E4FDFC7F8D120F1CE4FDFC7FAEFE020F70
:011041002688
:100FCD00E4F9120F0BE4F5087D017C00E4FFFE123D
:0F0FDD000F260508E508C3948040ED09B908E325
:010FEC0022E2
:100FAC00E4F9120F0BE4F5347D017C007F017E0027
:100FBC00120F260534E534C3948040EC09B908E2DD
:010FCC002202
:040AD6008F0F8D10E1
:100ADA00E4F513F9EB24E0F513E50FD3947F40070F
:100AEA00E4F50F05100510E51264107069AD10AF3A
:100AFA000F120F37E4F975F010E513A429F582E413
:100B0A0035F0F583E5822446F582E5833402F583E0
:100B1A00E493FF7E007D017C00120F2609B908D6F6
:100B2A00E51004FDAF0F120F37E4F975F010E51365
:100B3A00A429F582E435F0F583E582244EF582E5B1
:100B4A00833402F583E493FF7E007D017C00120F5B
:100B5A002609B908D622AD10AF0F120F37E4F9757E
:100B6A00F006E513A4241EF582E5F03400F583E5CA
:100B7A008229F582E43583F583E493FF7E007D01C3
:090B8A007C00120F2609B906D601
:010B9300223F
:040FED008F35A9058E
:100FF1007F017E00AD0119ED6009AD357C00120B5A
:03100100C180F1BA
:0110040022C9
:080CB4008F1F8D208A218B2285
:100CBC00E4F527F525E525C395235065C3E5239574
:100CCC002514FD7F0A120FEDAC21AD22CFCDCFCE76
:100CDC00CCCE120BD37C007D0A120BD38D26E527CC
:100CEC007023E52314FFE525C39F5019E5267012E8
:100CFC00E524C3138525F0A4251FFF8524127B2032
:100D0C008016752701E524C3138525F0A4251FFF44
:100D1C00E5262430FB852412AD20120AD605258049
:010D2C009432
:010D2D0022A3
:0A0E4D008F088D098B0A8A0B890CAF
:100E5700E4F50EAB0AAA0BA90C850E827583001266
:100E67000B94FB6020850D12AD09AF08120AD674EA
:100E7700082508F508D394784007E4F5080509051F
:050E870009050E80CEFC
:010E8C002243
:060D2E008F288D298B2A9D
:100D3400E4F52B120F37E4F975F040E52AA42436C4
:100D4400F582E5F03408F583E58229F582E43583FC
:100D5400F583E493FF7E007D017C00120F26052BB2
:100D640009B910D4E52904FDAF28120F37E4F97549
:100D7400F040E52AA42456F582E5F03408F583E52D
:100D84008229F582E43583F583E493FF7E007D01B7
:0B0D94007C00120F26052B09B910D4BB
:010D9F002231
:040DA0008F148B160B
:100DA400E4F51BF51CE5175407700BE51713131333
:100DB400541FF51E800AE517131313541F04F51E60
:100DC4008D1EE51EC39517503BAD1EAF14120F3791
:100DD40085141DE51DC395165026AB18AA19A91A2A
:100DE400051CE51CAE1B7002051B14F5828E8312D4
:100DF4000B94FF7E007D017C00120F26051D80D31D
:040E0400051E80BE89
:010E080022C7
:1009F600E4FDFC7FAEFE120F15E4FDFC7F40FE1207
:100A06000F26E4FDFC7FB0FE120F26E4FDFC7F817D
:100A1600FE120F26E4FDFC7FFFFE120F26E4FDFC0E
:100A26007FA1FE120F26E4FDFC7FA6FE120F26E430
:100A3600FDFC7FA8FE120F26E4FDFC7F3FFE120F91
:100A460026E4FDFC7FC8FE120F26E4FDFC7FD3FEE4
:100A5600120F26E4FDFCFFFE120F26E4FDFC7FD5F7
:100A6600FE120F26E4FDFC7F80FE120F26E4FDFC3D
:100A76007FD8FE120F26E4FDFC7F05FE120F26E44A
:100A8600FDFC7FD9FE120F26E4FDFC7FF1FE120F5E
:100A960026E4FDFC7FDAFE120F26E4FDFC7F12FE43
:100AA600120F26E4FDFC7FDBFE120F26E4FDFC7F21
:100AB60030FE120F26E4FDFC7F8DFE120F26E4FDAC
:100AC600FC7F14FE120F26E4FDFC7FAFFE020F260C
:10101C00EF1FAC0670011E4C600A7D027CEFDCFEFB
:04102C00DDFC80EC7B
:01103000229D
:0810C000022E0000022C0000CA
:0B108B00D2B3D2B2C2B1D2B4C2B522BF
:0B109600D2B3C2B2D2B1C2B4D2B522B4
:0310D000C2B32286
:0B10A100D293D292C291D294C2952249
:0B10AC00D293C292D291C294D295223E
:0310D300C29322A3
:0D107E0012108B121052752C00752D3222AD
:100E8D00E4F532F533F532F533740A252DF52DE4FD
:100E9D00352CF52CC3E52D9464E52C94004005E428
:100EAD00F52CF52D7FE87E0312101C0533E533700C
:0E0EBD00020532C3940AE5326480948040CB73
:010ECB002204
:03001B00020ECC06
:100ECC00C0E0C0D0758DFF758B9C052FE52F70028F
:100EDC00052EC3E52E94004011D3E52F952DE52E5C
:100EEC00952C5006D2B2D2B18004C2B2C2B1E52F59
:0F0EFC006464452E7004F52EF52FD0D0D0E0326F
:10105200758910758DFF758B9CD28ED2ABD2AF2263
:03000000020C28C7
:0C0C2800787FE4F6D8FD758135020C6F72
:100B9400BB010CE58229F582E5833AF583E0225016
:100BA40006E92582F8E622BBFE06E92582F8E22260
:0D0BB400E58229F582E5833AF583E493227A
:100BC100EF8DF0A4A8F0CF8CF0A428CE8DF0A42E48
:020BD100FE2202
:100BD300BC000BBE0029EF8DF084FFADF022E4CC06
:100BE300F875F008EF2FFFEE33FEEC33FCEE9DECCF
:100BF300984005FCEE9DFE0FD5F0E9E4CEFD22ED15
:100C0300F8F5F0EE8420D21CFEADF075F008EF2F5E
:100C1300FFED33FD4007985006D5F0F222C398FD4F
:050C23000FD5F0EA22EC
:100C3400020E09E493A3F8E493A34003F68001F2BF
:100C440008DFF48029E493A3F85407240CC8C333C1
:100C5400C4540F4420C8834004F456800146F6DF90
:100C6400E4800B01020408102040809010C0E47E50
:100C7400019360BCA3FF543F30E509541FFEE49385
:100C8400A360010ECF54C025E060A840B8E493A34C
:100C9400FAE493A3F8E493A3C8C582C8CAC583CA77
:100CA400F0A3C8C582C8CAC583CADFE9DEE780BE2F
:0110C8000027
:00000001FF
