:10098E00E4F57212094C120A030572AF721208597D
:0D099E007B007A00792A7D0112059380EC20
:10072C001209ABE54AC4540F244FF8E6F522E54A0A
:10073C00540F244FF8E6F523752440E549C4540FB3
:10074C00244FF8E6F525E549540F244FF8E6FFF55C
:10075C0026752740E548C4540F244FF8E6FEF528CB
:10076C00E548540F244FF8E6FDF5298F268F2E759A
:0E077C002740752F408E288E30F5298D3122B2
:10085900EF75F03284E5F070141206B1E4FBFA7911
:100869002078411200031201478E708F71C3E57021
:1008790064809480500FC3E49571F571E49570F527
:080889007075324022E4F532E3
:010891002244
:0603D6008B0E8A0F891056
:1003DC00EF75F03284E5F070141206B1E4FBFA7993
:1003EC002078411200031201478E118F12C3E511C0
:1003FC00648094805010C3E49512F512E49511F5C5
:10040C00117513408003E4F513AE11AF127C037D1C
:10041C00E8120229744F2FF8E6F514AB0EAA0FA9B7
:10042C00101201F5AE11AF127C037DE81202297E89
:10043C00007F64CFCDCFCECCCE120229744F2FF8D3
:10044C00E6F515AB0EAA0FA910900001120207AE2B
:10045C0011AF127C037DE81202297E007F64CFCDA0
:10046C00CFCECCCE1202297E007F0ACFCDCFCECC00
:10047C00CE120229744F2FF8E64480F516AB0EAA63
:10048C000FA910900002120207AE11AF127C037D6F
:10049C00E81202297E007F64CFCDCFCECCCE1202E3
:1004AC00297E007F0ACFCDCFCECCCE120229744F3D
:1004BC002DF8E6F517AB0EAA0FA910900003020257
:0104CC000728
:1008C500E4F508120A0312094C05087B007A007941
:1008D50009AF081203D685092A850A2B850B2C85B5
:1008E5000C2D12072C7B007A00792A7D01120593C5
:0208F50080D7AA
:1004CD00E4F560120A0312094C0560E56075F0321F
:1004DD0084E5F070141206B1E4FBFA79207841122C
:1004ED0000031201478E618F62C3E56164809480C1
:1004FD005010C3E49562F562E49561F56175634052
:10050D008003E4F563AE61AF627C037DE8120229DE
:10051D00744F2FF8E6F564F52AAE61AF627C037D6A
:10052D00E8120229AA04AB057D647C00AF03AE027C
:10053D00120229744F2FF8E6F565F52B7D647C00CA
:10054D00AF03AE02120229AA04AB057D0A7C00AFEF
:10055D0003AE02120229744F2FF8E64480F566F5BA
:10056D002C7D0A7C00AF03AE02120229744F2DF8C8
:10057D00E6F567F52D12072C7B007A00792A7D01AF
:06058D001205930204D6E2
:1002C200E4F568120A0312094C0568E56875F03214
:1002D20084E5F070141206B1E4FBFA792078411239
:1002E20000031201478E698F6AC3E56964809480B6
:1002F2005010C3E4956AF56AE49569F569756B4037
:100302008003E4F56BAE69AF6A7C037DE8120229D3
:10031200744F2FF8E6F56CF52AAE69AF6A7C037D5F
:10032200E8120229AA04AB057D647C00AF03AE0289
:10033200120229744F2FF8E6F56DF52B7D647C00CF
:10034200AF03AE02120229AA04AB057D0A7C00AFFC
:1003520003AE02120229744F2FF8E64480F56EF5BF
:100362002C7D0A7C00AF03AE02120229744F2DF8D5
:10037200E6F56FF52D1209ABE54AC4540F244FF888
:10038200E6F522E54A540F244FF8E6F5237524409A
:10039200E549C4540F244FF8E6F525E549540F24E6
:1003A2004FF8E6F526F52E752740752F40E548C42F
:1003B200540F244FF8E6F528F530E548540F244F42
:1003C200F8E6F529F5317B007A00792A7D011205DC
:0403D200930202CBC5
:1008F700114F3F065B4F666D7D077F6F777C395ED3
:0309070079710003
:060593008B0E8A0F891097
:10059900E4F511ED14F512F511E511C39408507B3A
:1005A900E511B40800504D9005B7F82828730205E5
:1005B900CF0205D30205D70205DB0205DF0205E7F5
:1005C9000205EF0205F7D2A4800ED2A48012D2A4AC
:1005D9008016D2A4801AC2A4D2A3D2A28016C2A421
:1005E900D2A3C2A2800EC2A4C2A3D2A28006C2A470
:1005F900C2A3C2A2C3E5119512FFE49400AB0EAAEF
:100609000FA9108F82F5831201C8F5807F647E00DF
:0B0619001209F8E4F58005110205A2AB
:0106240022B3
:10090A00074181838587898B8D073A80828486880F
:0B091A008A8C07484751132004052178
:10089200E4FEC2B500C2B600D2B500EF1392B4EFC7
:1008A200C313FFD2B600C2B6000EBE08EEE4FEEDE0
:1008B2001392B4EDC313FDD2B600C2B6000EBE0849
:0208C200EE0046
:0108C4002211
:10078A00E4FEFDFBC2B500C2B600D2B500EF13927B
:10079A00B4EFC313FFD2B600C2B6000EBE08EEE431
:1007AA00FEA2B4E433FDC43333335480FFEBC313E6
:1007BA004FFBD2B600C2B6000EBE08E500D2B600A4
:0807CA00C2B400D2B400AF0379
:0107D2002204
:10094C00E4FCFD7F8E120892743A2CF8E6FF744892
:10095C002CF8E6FD1208920CBC07ED7D807F8E0210
:02096C000892EF
:1009AB00E4FC74412CF8E6FF12078A74482CF8A675
:0509BB00070CBC07ED74
:0109C0002214
:1009C100EF1FAC0670011E4C600A7D027CEFDCFE5D
:0409D100DDFC80ECDD
:0109D50022FF
:1009D600C2B77F4B7E001209F8D2B77F027E0002B3
:0209E60009F80E
:1007D300E4F51F30B712E51FC39414500B051F7FB8
:1007E300017E001209F880EBE51FC3941440037FD8
:1007F3000122E4F51F20B712E51FC39414500B0523
:100803001F7F017E001209F880EBE51FC39414409B
:06081300037F01227F00BB
:0108190022BC
:10096E00E4F521C2B70000D2B7000030B7057521FB
:0F097E00018003E4F5217F057E001209F8AF2107
:01098D002247
:10092600E4F51FF520FFF51F12096EEFC4333333CC
:100936005480FEE520C3134EF520051FE51FC39422
:050946000840E5AF20B0
:01094B002289
:02081A008F1F2E
:10081C00E4F520F521F520E51F5401F521E51FC372
:10082C0013F51FE521600FC2B70000D2B77F067E1B
:10083C00001209F8800DC2B77F067E001209F8D2AB
:0C084C00B700000520E520C3940840CB55
:01085800227D
:1009E8001209D61207D37FCC12081A7F4402081ABC
:070A03001209D61207D322ED
:1006B100E4FFF51CF51DF51E1209E81209D6120713
:1006C100D37FCC12081A7FBE12081A1209268F1C7A
:1006D100120926EFFE7C00E4251CF51EEC3EF51DFB
:1006E10054F8FEEEB4F821E51EF4FFE51DF4FEEF2B
:1006F1002401F51EE43EF51DFCAD1EE412010EE4DD
:10070100FBFA798078BD800FAC1DAD1EE412010E9D
:10071100E4FBFA7980783D1200038F1B8E1A8D1944
:0A0721008C18AF1BAE1AAD19AC180E
:01072B0022AB
:0B09F800EF1FAC0670011E4C70F622D1
:10000300EC4D6011E8497017ED33EC3304600DE4F7
:10001300FCFFFEFD22E933E8330470F80201B3125A
:10002300017E58046009E4CC24815006285009025B
:1000330001BD2840030201BAC0E0EB4A7044B98015
:1000430006D0E0FB0201A9EF4E701CBD8008EBFF58
:10005300EAFEE9FD80EBE98DF0A4FEE5F00200EC99
:10006300E9CDF9EAFEEBFFEF89F0A4FCE5F0CE89D8
:10007300F0A42EFFE435F0CD89F0A42DFEE435F095
:100083008067EF4E7005BD80D780C3EF8BF0A4ACC3
:10009300F0EE8BF0A42CFCE435F0F8EF8AF0A42CFE
:1000A300E5F038FCE433CB8DF0A42CFCE5F03BF811
:1000B300EE8AF0A42CFCE5F038F8E433CF89F0A401
:1000C3002CFCE5F038CF3400CE89F0A42FFFE5F007
:1000D3003EFEE433C98DF0A42EFEE5F039CD8AF05F
:1000E300A42FFFE5F03EFEE43DFD33D0E0FB5007D7
:1000F3000BBB000F0201BDEC2CFCEF33FFEE33FE14
:06010300ED33FD02019541
:1001090075F020800E75F010800575F0087D007E71
:10011900007F003392D530D50312025FEC334010D3
:10012900EF33FFEE33FEED33FDEC33FCD5F0ED227A
:0E013900E5F0247EA2D513CC92E7CDCEFF22B6
:10014700EDD2E7CD33EC3392D524814006E4FFFEB0
:10015700FDFC22FCE4CFCECDCC24E0501174FF800F
:10016700EDC3CC13CCCD13CDCE13CECF13CF0470AC
:07017700F030D5DE02025F4B
:10017E00E9D2E7C933E833F892D5EDD2E7CD33ECC7
:07018E0033FC5002B2D52240
:10019500EC30E7100FBF000C0EBE00080DBD0004CB
:1001A5000BEB6014A2D5EB13FCED92E7FD2274FF77
:1001B500FCFDFEFF22E480F8A2D574FF13FC7D80D0
:0301C500E480EFE4
:03000000020625D0
:0C062500787FE4F6D8FD75817202066C47
:1001C800BB010CE58229F582E5833AF583E02250EC
:1001D80006E92582F8E622BBFE06E92582F8E22236
:0D01E800E58229F582E5833AF583E4932250
:1001F500BB010689828A83F0225002F722BBFE01E9
:02020500F322E2
:10020700F8BB010DE58229F582E5833AF583E8F02D
:10021700225006E92582C8F622BBFE05E92582C8D9
:02022700F222C1
:10022900C2D5EC30E709B2D5E4C39DFDE49CFCEEF0
:1002390030E715B2D5E4C39FFFE49EFE12026DC3F9
:10024900E49DFDE49CFC800312026D30D507C3E4F4
:060259009FFFE49EFE225F
:0E025F00C3E49FFFE49EFEE49DFDE49CFC22B0
:100631000208C5E493A3F8E493A34003F68001F212
:1006410008DFF48029E493A3F85407240CC8C333CA
:10065100C4540F4420C8834004F456800146F6DF99
:10066100E4800B01020408102040809008F7E47E2A
:10067100019360BCA3FF543F30E509541FFEE4938E
:10068100A360010ECF54C025E060A840B8E493A355
:10069100FAE493A3F8E493A3C8C582C8CAC583CA80
:1006A100F0A3C8C582C8CAC583CADFE9DEE780BE38
:0109250000D1
:10026D00BC000BBE0029EF8DF084FFADF022E4CC75
:10027D00F875F008EF2FFFEE33FEEC33FCEE9DEC3E
:10028D00984005FCEE9DFE0FD5F0E9E4CEFD22ED84
:10029D00F8F5F0EE8420D21CFEADF075F008EF2FCE
:1002AD00FFED33FD4007985006D5F0F222C398FDBF
:0502BD000FD5F0EA225C
:00000001FF
