:1009BC0020202D20202D20200020203A20203A20FD
:1009CC002000543A004F563A48004F563A4C0020FB
:0409DC0020202000B7
:10046D00120BB2120B2E120A277BFF7A0979BC7D73
:10047D00017F02120A047BFF7A0979C57D097F028B
:10048D00120A04120BD57FE87E03120B9DE4FF12B6
:10049D0009378F2A7F011209378F1FD3E52A648010
:1004AD0094FD5016C3E51F64809449400DD3E51F9C
:1004BD006480F8E52A6480985006752A14751F0F1C
:1004CD007BFF7A0979CE7D017F01120A04120C158A
:1004DD008F2B120BD51209678F298E288D278C260D
:1004ED00E4FFFEFDFCAB29AA28A927A8261201B41A
:1004FD00501E7B2D7D037F01120BF8AF29AE28AD69
:10050D0027AC2612022D8F2F8E2E8D2D8C2C801523
:10051D007B2B7D037F01120BF885292F85282E85D6
:10052D00272D85262CAF2FAE2EAD2DAC2C12027C97
:10053D00AB07AA067534037D047F01120AA37B2E37
:10054D007D077F01120BF8E4FFFE7DC87C42AB2FC7
:10055D00AA2EA92DA82C12000E12027CE47B64FA9F
:10056D00F9F81203CD7534027D087F01120AA3E557
:10057D002B6076B4010E052AD3E52A648094FD40E4
:10058D0003752A7DE52BB40211152AD3E51F64806E
:10059D00F8E52A6480985002052AE52BB40311056D
:1005AD001FC3E52A6480F8E51F6480984002151F7B
:1005BD00E52BB4040E151FC3E51F64809449500349
:1005CD00751FC9E52AFD3395E0FCE4FF1209E07FB4
:1005DD00057E00120B9DE51FFD3395E0FC7F01129A
:1005ED0009E07F057E00120B9DAC2AEC120248AB90
:1005FD0029AA28A927A8261201B4600A40087BFF62
:10060D007A0979D1801FAC1FEC120248AB29AA28B8
:10061D00A927A8261201B47BFF50067A0979D68046
:10062D00047A0979DB7D0D7F01120A04120B87E52F
:10063D0018C4540FF520E518540FF521E517C454CF
:10064D000FF522E517540FF523E516C4540FF524C5
:10065D00E516540FF525E520FB7A007534027D0172
:10066D007F02120AA3E521FB7A007534027D047F17
:10067D0002120AA3E522FB7A007534027D077F0280
:10068D00120AA3E523FB7A007534027D097F02125D
:10069D000AA3E524FB7A007534027D0C7F02120A51
:1006AD00A3E525FB7A007534027D0F7F02120AA3A4
:0306BD000204DA5A
:03000B0002074C9D
:10074C00C0E0C0F0C083C082C0D075D000C000C073
:0D075C0001C002C003C004C005C006C007F4
:10076900758A18758CFC051EE51E7002051DC3945B
:1007790014E51D94004009751D00751E00120860DE
:10078900D007D006D005D004D003D002D001D000C4
:0B079900D0D0D082D083D0F0D0E0326E
:100B9D00EF1FAC0670011E4C600A7D027CEFDCFE7F
:040BAD00DDFC80ECFF
:010BB1002221
:060BC600C2A58F80D2A73A
:080BCC007F027EEFDEFEDFFC7C
:010BD40022FE
:0A0BEE00C2A6120BC6C2A7020BCC70
:100A4900CFCDCFCECCCE12033C7C007D0A12033C25
:040A5900ED2430FF59
:0A0A5D00D2A6120BC6C2A7020BCCF2
:100B4500AE07BE0104ED148006BE0209ED243F4444
:060B550080FF120BEE22EE
:100BB2007F38120BEE7F0C120BEE7F06120BEE7FCC
:040BC20001020BEE33
:0A0BF800AC03120B45AF04020A5DC6
:060A04008B308A318932BB
:100A0A00120B45E4FDAB30AA31A9328D8275830001
:0C0A1A001202FDFF6006120A5D0D80E96B
:010A260022AD
:0C08D1007F0AEA24FFFDE434FFFC7E00F7
:0808DD008E358F368C378D3803
:1008E5007F017E00E4FBEBC39538E5376480F8743F
:0E08F5008098500AAC35AD3612032A0B80E80D
:0109030022D1
:040AA3008A328B33D5
:100AA700120B45AA34EAD39400400D1208D1AC3298
:080AB700AD33120A491A80ED6B
:010ABF002214
:1007ED00120B45C3EA64809480400B7F2B120A5D87
:1007FD008A3E8B3F800E7F2D120A5DC3E49BF53F31
:10080D00E49AF53EAA3DEAD39400400D1208D1AC0E
:09081D003EAD3F120A491A80EDBC
:0108260022AF
:040827008A428B4333
:10082B00120B45AA44EAD3940040297F101208D337
:10083B00AC42AD43CFCDCFCECCCE12033CEF540F59
:10084B00FEC3940AEE5004243080022437FF120AB0
:04085B005D1A80D1D1
:01085F002276
:040899008A478B48B7
:10089D00120B45AA49EAD394004028EA24FFFDE44F
:1008AD0034FFFC7F027E001208DDAC47AD48CFCD92
:1008BD00CFCECCCE12033CEF54012430FF120A5D93
:0308CD001A80D2BC
:0108D0002205
:1009E0008F308C318D32120C0C7FA0120993120BB8
:1009F000E2AF30120993120BE2AF32120993120BDD
:040A0000E20200030B
:020937008F30FF
:10093900120C0C7FA0120993120BE2AF301209932B
:10094900120BE2120C0C7FA1120993120BE2120A8C
:0D095900678F317F01120C02120003AF31D5
:01096600226E
:090C0C00D2A0D2A1C2A0C2A12213
:07000300C2A0D2A1D2A0228D
:02099300AD07AE
:10099500E4FB74807E00A803088006CEA2E713CE90
:1009A50013D8F8FFEDF582EF558224FF92A0D2A16E
:0609B500C2A10BBB08DC2F
:0109BB002219
:100A6700E4FFD2A0FED2A130A00D7480A8060880B2
:0D0A770002C313D8FC4207C2A10EBE08E85E
:010A8400224F
:0A0C0200EF24FF92A0D2A1C2A122AC
:0B0BE200D2A0D2A1A2A0E433FFC2A168
:010BED0022E5
:0D0BD500120A857FCC120B157F44020B1510
:10096700120A857FCC120B157FBE120B15120AC017
:100977008F30120AC0EFFEE530FFFDAC06EC120225
:0B09870043E4FBFA798078411201176D
:010992002242
:100A8500C2AFD2B7C2B77FF7DFFED2B77F20DFFE96
:0D0A9500A2B7E433FE7FF7DFFED2AFAF065D
:010AA2002231
:100B5B00C2AFC2B77E04DEFEEF24FF92B77E18DE73
:050B6B00FED2B7D2AF7D
:010B70002262
:100ADD00C2AFC2B77F02DFFED2B77F02DFFEA2B781
:0B0AED00E433FE7F18DFFED2AFAF063F
:010AF80022DB
:020B1500AD072A
:100B1700E4FC7401A804088002C333D8FC5DFF120B
:060B27000B5B0CBC08ECA6
:010B2D0022A5
:100AC000E4FDFC120ADDEF600D7401A80408800249
:0C0AD000C333D8FC42050CBC08E9AF059C
:010ADC0022F7
:050C1500E4AF4CF54CBA
:010C1A0022B7
:100B7100E4FF20B1010F20B0027F0220B2027F0307
:050B810020B3027F0417
:010B8600224C
:10086000854A4B120B718F4AE54BB40107E54A707C
:1008700003754C01E54BB40207E54A7003754C0261
:10088000E54BB40307E54A7003754C03E54BB4042C
:0808900007E54A7003754C04F2
:01089800223D
:100B2E005389F0438901758A18758CFCC28DD28C5D
:070B3E00D2A9D2AFC2B92217
:100AF900070F81838587898B8D0708808284868883
:0B0B09008A8C071647511320040521B9
:10090400E4FEC2B500C2B600D2B500EF1392B4EF54
:10091400C313FFD2B600C2B6000EBE08EEE4FEED6D
:100924001392B4EDC313FDD2B600C2B6000EBE08D6
:02093400EE00D3
:01093600229E
:1007A400E4FEFDFBC2B500C2B600D2B500EF139261
:1007B400B4EFC313FFD2B600C2B6000EBE08EEE417
:1007C400FEA2B4E433FDC43333335480FFEBC313CC
:1007D4004FFBD2B600C2B6000EBE08E500D2B6008A
:0807E400C2B400D2B400AF035F
:0107EC0022EA
:100A2700E4FCFD7F8E12090474082CF8E6FF7416A7
:100A37002CF8E6FD1209040CBC07ED7D807F8E02C1
:020A47000904A0
:100B8700E4FC740F2CF8E6FF1207A474162CF8A6E1
:050B9700070CBC07ED96
:010B9C002236
:10000E00EC4D6011E8497017ED33EC3304600DE4EC
:10001E00FCFFFEFD22E933E8330470F80202E81219
:10002E0002B358046009E4CC24815006285009021A
:10003E0002F22840030202EFC0E0EB4A7044B9809E
:10004E0006D0E0FB0202DEEF4E701CBD8008EBFF17
:10005E00EAFEE9FD80EBE98DF0A4FEE5F00200F783
:10006E00E9CDF9EAFEEBFFEF89F0A4FCE5F0CE89CD
:10007E00F0A42EFFE435F0CD89F0A42DFEE435F08A
:10008E008067EF4E7005BD80D780C3EF8BF0A4ACB8
:10009E00F0EE8BF0A42CFCE435F0F8EF8AF0A42CF3
:1000AE00E5F038FCE433CB8DF0A42CFCE5F03BF806
:1000BE00EE8AF0A42CFCE5F038F8E433CF89F0A4F6
:1000CE002CFCE5F038CF3400CE89F0A42FFFE5F0FC
:1000DE003EFEE433C98DF0A42EFEE5F039CD8AF054
:1000EE00A42FFFE5F03EFEE43DFD33D0E0FB5007CC
:1000FE000BBB000F0202F2EC2CFCEF33FFEE33FED3
:06010E00ED33FD0202CA00
:100114000202F2EC5D046005E8590470030202E88F
:100124001202B3580460F6EC4860F2EC7004FDFE71
:10013400FF22C860DB2481C85009C39860025006BE
:100144000202EF9850CAF582E9294B4A7005AB8246
:100154000202DE75F0007C1A7880C3EF9BEE9AED04
:1001640099400DC3EF9BFFEE9AFEED99FDE842F036
:10017400DC23ACF0D0E0FFD0E0FED0E0FDAB822089
:10018400E7101BEB60BAEC2CFCEF33FFEE33FEED13
:1001940033FD0202CAE803F830E705C0F075F00049
:1001A400EF2FFFEE33FEED33FD40B830E7C280AAF7
:1001B40074F8CC6480CCC86480C8F58204604FC3F2
:1001C400EB9FF5F0EA9E42F0E99D42F0E89C45F091
:1001D400603C501DE5825FFFE582D313CB5BCBF41B
:1001E4002B5582FB50280ABA002409B90020088044
:1001F4001DE5825BFBE582D313CF5FCFF4C3132FDE
:100204005582FF50090EBE00050DBD00010CC3EB65
:100214009FF5F0EA9E42F0E99D42F0E89C45F060CB
:0902240007CC4820E701B3EC22ED
:10022D00ED33EC33600A047003BD8004ECB2E7FCDF
:01023D00229E
:10023E0075F020800E75F010800575F0087D007E3B
:10024E00007F003392D530D50312045FEC3340109B
:10025E00EF33FFEE33FEED33FDEC33FCD5F0ED2244
:0E026E00E5F0247EA2D513CC92E7CDCEFF2280
:10027C00EDD2E7CD33EC3392D524814006E4FFFE7A
:10028C00FDFC22FCE4CFCECDCC24E0501174FF80D9
:10029C00EDC3CC13CCCD13CDCE13CECF13CF047076
:0702AC00F030D5DE02045F13
:1002B300E9D2E7C933E833F892D5EDD2E7CD33EC91
:0702C30033FC5002B2D5220A
:1002CA00EC30E7100FBF000C0EBE00080DBD000495
:1002DA000BEB6014A2D5EB13FCED92E7FD2274FF41
:1002EA00FCFDFEFF22E480F8A2D574FF13FC7D809A
:0302FA00E480EFAE
:030000000206C035
:0C06C000787FE4F6D8FD75814C02070736
:1002FD00BB010CE58229F582E5833AF583E02250B6
:10030D0006E92582F8E622BBFE06E92582F8E222FF
:0D031D00E58229F582E5833AF583E4932219
:10032A00EF8DF0A4A8F0CF8CF0A428CE8DF0A42EE7
:02033A00FE22A1
:10033C00BC000BBE0029EF8DF084FFADF022E4CCA5
:10034C00F875F008EF2FFFEE33FEEC33FCEE9DEC6E
:10035C00984005FCEE9DFE0FD5F0E9E4CEFD22EDB4
:10036C00F8F5F0EE8420D21CFEADF075F008EF2FFE
:10037C00FFED33FD4007985006D5F0F222C398FDEF
:05038C000FD5F0EA228C
:1003910075F008758200EF2FFFEE33FECD33CDCC23
:1003A10033CCC58233C5829BED9AEC99E5829840A6
:1003B1000CF582EE9BFEED9AFDEC99FC0FD5F0D683
:1003C100E4CEFBE4CDFAE4CCF9A88222B800C1B9AD
:1003D1000059BA002DEC8BF084CFCECDFCE5F0CBEB
:1003E100F97818EF2FFFEE33FEED33FDEC33FCEB24
:1003F10033FB10D703994004EB99FB0FD8E5E4F9DF
:10040100FA227818EF2FFFEE33FEED33FDEC33FCCB
:10041100C933C910D7059BE99A4007EC9BFCE99ABF
:10042100F90FD8E0E4C9FAE4CCFB2275F010EF2F04
:10043100FFEE33FEED33FDCC33CCC833C810D70704
:100441009BEC9AE899400AED9BFDEC9AFCE899F83F
:0E0451000FD5F0DAE4CDFBE4CCFAE4C8F922D2
:0E045F00C3E49FFFE49EFEE49DFDE49CFC22AE
:1006CC0002046DE493A3F8E493A34003F68001F2D3
:1006DC0008DFF48029E493A3F85407240CC8C3332F
:1006EC00C4540F4420C8834004F456800146F6DFFE
:1006FC00E4800B0102040810204080900AF9E47E8B
:10070C00019360BCA3FF543F30E509541FFEE493F2
:10071C00A360010ECF54C025E060A840B8E493A3B9
:10072C00FAE493A3F8E493A3C8C582C8CAC583CAE4
:10073C00F0A3C8C582C8CAC583CADFE9DEE780BE9C
:010B140000E0
:00000001FF
