:100B590020202D20202D20200020203A20203A205E
:100B69002000543A0054483A00544C3A004F563A3F
:0C0B790048004F563A4C0020202020007D
:10088D00120D58120DCB7BFF7A0B79597D017F012B
:10089D00120BFE7BFF7A0B79627D017F02120BFE3C
:1008AD0012068A120774E525FB7A007519027D017F
:1008BD007F01120C7BE526FB7A007519027D047F02
:1008CD0001120C7BE527FB7A007519027D077F016C
:1008DD00120C7BE528FB7A007519027D017F02124F
:1008ED000C7BE529FB7A007519027D047F02120C41
:1008FD007BE52AFB7A007519027D077F02120C7BBE
:02090D0080A1C7
:10046D00120D7B7FE87E03120D43E4FF120B298FE3
:10047D000F7F01120B298F0AD3E50F648094FD5075
:10048D0016C3E50A64809449400DD3E50A6480F8EB
:10049D00E50F6480985006750F14750A0F120D58EC
:1004AD007BFF7A0B796B7D017F01120BFE7BFF7A4F
:1004BD000B796E7D017F02120BFE7BFF7A0B797239
:1004CD007D097F02120BFEE50FFB3395E0FA7522D5
:1004DD00037D047F02120A12E50AFB3395E0FA75DB
:1004ED0022037D0C7F02120A12120CEA120DC58F27
:1004FD0010120D7B120B858F0E8E0D8D0C8C0BE457
:10050D00FFFEFDFCAB0EAA0DA90CA80B1201B450F9
:10051D001E7B2D7D037F01120D9EAF0EAE0DAD0C1A
:10052D00AC0B12022D8F148E138D128C1180157B36
:10053D002B7D037F01120D9E850E14850D13850CE9
:10054D0012850B11AF14AE13AD12AC1112027CABB0
:10055D0007AA067519037D047F01120C7B7B2E7D86
:10056D00077F01120D9EE4FFFE7DC87C42AB14AAED
:10057D0013A912A81112000E12027CE47B64FAF981
:10058D00F81203CD7519027D087F01120C7BE51061
:10059D00700302063AB4010E050FD3E50F64809483
:1005AD00FD4003750F7DE510B40211150FD3E50A5B
:1005BD006480F8E50F6480985002050FE510B403D0
:1005CD0011050AC3E50F6480F8E50A6480984002BE
:1005DD00150AE510B4040E150AC3E50A64809449A2
:1005ED005003750AC9E50FFB3395E0FA7522037DBB
:1005FD00047F02120A12E50AFB3395E0FA75220315
:10060D007D0C7F02120A12E50FFD3395E0FCE4FF2D
:10061D00120BDA7F057E00120D43E50AFD3395E0DE
:10062D00FC7F01120BDA7F057E00120D43AC0FEC3F
:10063D00120248AB0EAA0DA90CA80B1201B4600A48
:10064D0040087BFF7A0B79768019AC0AEC120248D0
:10065D00AB0EAA0DA90CA80B1201B450107BFF7A9A
:10066D000B797B7D0D7F01120BFE0204F97BFF7A66
:0D067D000B79807D0D7F01120BFE0204F948
:03000B0002096C7B
:10096C00C0E0C0F0C083C082C0D075D000C000C051
:0D097C0001C002C003C004C005C006C007D2
:10098900758A18758CFC0509E50970020508C39478
:1009990014E50894004009750800750900120A85D4
:1009A900D007D006D005D004D003D002D001D000A2
:0B09B900D0D0D082D083D0F0D0E0324C
:100D4300EF1FAC0670011E4C600A7D027CEFDCFED7
:040D5300DDFC80EC57
:010D57002279
:060D6C00C2A58F80D2A792
:080D72007F027EEFDEFEDFFCD4
:010D7A002256
:0A0D9400C2A6120D6CC2A7020D7278
:100C2100CFCDCFCECCCE12033C7C007D0A12033C4B
:040C3100ED2430FF7F
:0A0C3500D2A6120D6CC2A7020D72C8
:100D0100AE07BE0104ED148006BE0209ED243F4486
:060D110080FF120D942288
:100D58007F38120D947F0C120D947F06120D947F2C
:040D680001020D94E3
:0A0D9E00AC03120D01AF04020C3586
:060BFE008B158A16891711
:100C0400120D01E4FDAB15AA16A9178D8275830098
:0C0C14001202FDFF6006120C350D80E995
:010C200022B1
:0C0AF6007F0AEA24FFFDE434FFFC7E00D0
:080B02008E1A8F1B8C1C8D1D47
:100B0A007F017E00E4FBEBC3951DE51C6480F8744D
:0E0B1A008098500AAC1AAD1B12032A0B80E81B
:010B280022AA
:040C7B008A178B1831
:100C7F00120D01AA19EAD39400400D120AF6AC170F
:080C8F00AD18120C211A80EDD2
:010C9700223A
:100A1200120D01C3EA64809480400B7F2B120C35C7
:100A22008A238B24800E7F2D120C35C3E49BF52480
:100A3200E49AF523AA22EAD39400400D120AF6ACF6
:090A420023AD24120C211A80EDF1
:010A4B002288
:040A4C008A2E8B2F34
:100A5000120D01AA30EAD3940040297F10120AF83F
:100A6000AC2EAD2FCFCDCFCECCCE12033CEF540F5A
:100A7000FEC3940AEE5004243080022437FF120C87
:040A8000351A80D1D2
:010A8400224F
:040ABE008A338B34B8
:100AC200120D01AA35EAD394004028EA24FFFDE47E
:100AD20034FFFC7F027E00120B02AC33AD34CFCD6B
:100AE200CFCECCCE12033CEF54012430FF120C3592
:030AF2001A80D295
:010AF50022DE
:100BDA008F368C378D38120DBC7FA0120BB1120DD7
:100BEA0088AF36120BB1120D88AF38120BB1120D45
:040BFA00880200036A
:020B29008F3CFF
:100B2B00120DBC7FA0120BB1120D88AF3C120BB192
:100B3B00120D88120DBC7FA1120BB1120D88120C75
:0D0B4B003F8F3D7F01120DA8120003AF3D4A
:010B5800227A
:090DBC00D2A0D2A1C2A0C2A12262
:07000300C2A0D2A1D2A0228D
:020BB100AD078E
:100BB300E4FB74807E00A803088006CEA2E713CE70
:100BC30013D8F8FFEDF582EF558224FF92A0D2A14E
:060BD300C2A10BBB08DC0F
:010BD90022F9
:100C3F00E4FFD2A0FED2A130A00D7480A8060880D8
:0D0C4F0002C313D8FC4207C2A10EBE08E884
:010C5C002275
:0A0DA800EF24FF92A0D2A1C2A12205
:0B0D8800D2A0D2A1A2A0E433FFC2A1C0
:010D9300223D
:0D0D7B00120C5D7FCC120CD17F44020CD114
:100B8500120C5D7FCC120CD17FBE120CD1120C98C9
:100B95008F3E120C98EFFEE53EFFFDAC06EC12020F
:0B0BA50043E4FBFA798078411201174D
:010BB0002222
:100C5D00C2AFD2B7C2B77FF7DFFED2B77F20DFFEBC
:0D0C6D00A2B7E433FE7FF7DFFED2AFAF0683
:010C7A002257
:100D1700C2AFC2B77E04DEFEEF24FF92B77E18DEB5
:050D2700FED2B7D2AFBF
:010D2C0022A4
:100CB500C2AFC2B77F02DFFED2B77F02DFFEA2B7A7
:0B0CC500E433FE7F18DFFED2AFAF0665
:010CD0002201
:020CD100AD076D
:100CD300E4FC7401A804088002C333D8FC5DFF124E
:060CE3000D170CBC08EC2B
:010CE90022E8
:100C9800E4FDFC120CB5EF600D7401A80408800295
:0C0CA800C333D8FC42050CBC08E9AF05C2
:010CB400221D
:050DC500E4AF3BF53B2B
:010DCA002206
:100D2D00E4FF20B1010F20B0027F0220B2027F0349
:050D3D0020B3027F0459
:010D4200228E
:100A850085393A120D2D8F39E53AB40107E53970EC
:100A950003753B01E53AB40207E5397003753B027E
:100AA500E53AB40307E5397003753B03E53AB40449
:080AB50007E5397003753B04ED
:010ABD002216
:100CEA005389F0438901758A18758CFCC28DD28CA0
:070CFA00D2A9D2AFC2B9225A
:090DB2000725160C030C3B370663
:050DCB00C2B5C2B62212
:06090F0025F0FDEC3EFCAA
:060915008C158D16AB07E6
:10091B00D2B5E4FD74017E00A805088005C333CE73
:10092B0033CED8F9FFEBF582EF558224FF92B4D288
:10093B00B6C2B60DBD08DDE4FD74017E00A8050846
:10094B008005C333CE33CED8F9FFE5155EFEE51631
:10095B005F4E24FF92B4D2B6C2B60DBD08DBC2B552
:01096B002269
:0209C400AD077D
:1009C600E4F9430501D2B5FB74017E00A803088053
:1009D60005C333CE33CED8F9FFEDF582EF55822429
:1009E600FF92B4C2B6D2B60BBB08DDE4FBD2B6C2E8
:1009F600B630B40D7401A803088002C333D8FC4294
:0B0A0600010BBB08E8C2B5C2B4AF0191
:010A110022C2
:10068A00E4FDFC7F8E120915E52575F00A8475F0E4
:10069A0010A4FFAEF0E52575F00A84EF7F8C1209ED
:1006AA000FE52675F00A8475F010A4FFAEF0E52672
:1006BA0075F00A847C00EF7F8812090FE52775F030
:1006CA000A8475F010A4FFAEF0E52775F00A847C61
:1006DA0000EF25F0FDEC3EFC7F86120915E5287532
:1006EA00F00A8475F010A4FFAEF0E52875F00A84CC
:1006FA007C00EF25F0FDEC3EFC7F84120915E5290C
:10070A0075F00A8475F010A4FFAEF0E52975F00AB9
:10071A00847C00EF25F0FDEC3EFC7F82120915E592
:10072A002A75F00A8475F010A4FFAEF0E52A75F078
:10073A000A847C00EF25F0FDEC3EFC7F801209154F
:10074A00E52B75F00A8475F010A4FFAEF0E52B7561
:10075A00F00A847C00EF25F0FDEC3EFC7F8A12094A
:0A076A00157D807C007F8E020915CA
:100774007F8C1209C4EFC4540F75F00AA4FEEF5421
:100784000F2EF5257F881209C4EFC4540F75F00AA3
:10079400A4FEEF540F2EF5267F861209C4EFC4542D
:1007A4000F75F00AA4FEEF540F2EF5277F8412096B
:1007B400C4EFC4540F75F00AA4FEEF540F2EF528AD
:1007C4007F821209C4EFC4540F75F00AA4FEEF54DB
:1007D4000F2EF5297F801209C4EFC4540F75F00A57
:1007E400A4FEEF540F2EF52A7F8A1209C4EFC454D5
:0C07F4000F75F00AA4FEEF540F2EF52B39
:0108000022D5
:10000E00EC4D6011E8497017ED33EC3304600DE4EC
:10001E00FCFFFEFD22E933E8330470F80202E81219
:10002E0002B358046009E4CC24815006285009021A
:10003E0002F22840030202EFC0E0EB4A7044B9809E
:10004E0006D0E0FB0202DEEF4E701CBD8008EBFF17
:10005E00EAFEE9FD80EBE98DF0A4FEE5F00200F783
:10006E00E9CDF9EAFEEBFFEF89F0A4FCE5F0CE89CD
:10007E00F0A42EFFE435F0CD89F0A42DFEE435F08A
:10008E008067EF4E7005BD80D780C3EF8BF0A4ACB8
:10009E00F0EE8BF0A42CFCE435F0F8EF8AF0A42CF3
:1000AE00E5F038FCE433CB8DF0A42CFCE5F03BF806
:1000BE00EE8AF0A42CFCE5F038F8E433CF89F0A4F6
:1000CE002CFCE5F038CF3400CE89F0A42FFFE5F0FC
:1000DE003EFEE433C98DF0A42EFEE5F039CD8AF054
:1000EE00A42FFFE5F03EFEE43DFD33D0E0FB5007CC
:1000FE000BBB000F0202F2EC2CFCEF33FFEE33FED3
:06010E00ED33FD0202CA00
:100114000202F2EC5D046005E8590470030202E88F
:100124001202B3580460F6EC4860F2EC7004FDFE71
:10013400FF22C860DB2481C85009C39860025006BE
:100144000202EF9850CAF582E9294B4A7005AB8246
:100154000202DE75F0007C1A7880C3EF9BEE9AED04
:1001640099400DC3EF9BFFEE9AFEED99FDE842F036
:10017400DC23ACF0D0E0FFD0E0FED0E0FDAB822089
:10018400E7101BEB60BAEC2CFCEF33FFEE33FEED13
:1001940033FD0202CAE803F830E705C0F075F00049
:1001A400EF2FFFEE33FEED33FD40B830E7C280AAF7
:1001B40074F8CC6480CCC86480C8F58204604FC3F2
:1001C400EB9FF5F0EA9E42F0E99D42F0E89C45F091
:1001D400603C501DE5825FFFE582D313CB5BCBF41B
:1001E4002B5582FB50280ABA002409B90020088044
:1001F4001DE5825BFBE582D313CF5FCFF4C3132FDE
:100204005582FF50090EBE00050DBD00010CC3EB65
:100214009FF5F0EA9E42F0E99D42F0E89C45F060CB
:0902240007CC4820E701B3EC22ED
:10022D00ED33EC33600A047003BD8004ECB2E7FCDF
:01023D00229E
:10023E0075F020800E75F010800575F0087D007E3B
:10024E00007F003392D530D50312045FEC3340109B
:10025E00EF33FFEE33FEED33FDEC33FCD5F0ED2244
:0E026E00E5F0247EA2D513CC92E7CDCEFF2280
:10027C00EDD2E7CD33EC3392D524814006E4FFFE7A
:10028C00FDFC22FCE4CFCECDCC24E0501174FF80D9
:10029C00EDC3CC13CCCD13CDCE13CECF13CF047076
:0702AC00F030D5DE02045F13
:1002B300E9D2E7C933E833F892D5EDD2E7CD33EC91
:0702C30033FC5002B2D5220A
:1002CA00EC30E7100FBF000C0EBE00080DBD000495
:1002DA000BEB6014A2D5EB13FCED92E7FD2274FF41
:1002EA00FCFDFEFF22E480F8A2D574FF13FC7D809A
:0302FA00E480EFAE
:03000000020801F2
:0C080100787FE4F6D8FD75813E020848BF
:1002FD00BB010CE58229F582E5833AF583E02250B6
:10030D0006E92582F8E622BBFE06E92582F8E222FF
:0D031D00E58229F582E5833AF583E4932219
:10032A00EF8DF0A4A8F0CF8CF0A428CE8DF0A42EE7
:02033A00FE22A1
:10033C00BC000BBE0029EF8DF084FFADF022E4CCA5
:10034C00F875F008EF2FFFEE33FEEC33FCEE9DEC6E
:10035C00984005FCEE9DFE0FD5F0E9E4CEFD22EDB4
:10036C00F8F5F0EE8420D21CFEADF075F008EF2FFE
:10037C00FFED33FD4007985006D5F0F222C398FDEF
:05038C000FD5F0EA228C
:1003910075F008758200EF2FFFEE33FECD33CDCC23
:1003A10033CCC58233C5829BED9AEC99E5829840A6
:1003B1000CF582EE9BFEED9AFDEC99FC0FD5F0D683
:1003C100E4CEFBE4CDFAE4CCF9A88222B800C1B9AD
:1003D1000059BA002DEC8BF084CFCECDFCE5F0CBEB
:1003E100F97818EF2FFFEE33FEED33FDEC33FCEB24
:1003F10033FB10D703994004EB99FB0FD8E5E4F9DF
:10040100FA227818EF2FFFEE33FEED33FDEC33FCCB
:10041100C933C910D7059BE99A4007EC9BFCE99ABF
:10042100F90FD8E0E4C9FAE4CCFB2275F010EF2F04
:10043100FFEE33FEED33FDCC33CCC833C810D70704
:100441009BEC9AE899400AED9BFDEC9AFCE899F83F
:0E0451000FD5F0DAE4CDFBE4CCFAE4C8F922D2
:0E045F00C3E49FFFE49EFEE49DFDE49CFC22AE
:10080D0002088DE493A3F8E493A34003F68001F26C
:10081D0008DFF48029E493A3F85407240CC8C333EC
:10082D00C4540F4420C8834004F456800146F6DFBB
:10083D00E4800B0102040810204080900DB2E47E8C
:10084D00019360BCA3FF543F30E509541FFEE493B0
:10085D00A360010ECF54C025E060A840B8E493A377
:10086D00FAE493A3F8E493A3C8C582C8CAC583CAA2
:10087D00F0A3C8C582C8CAC583CADFE9DEE780BE5A
:010DBB000037
:00000001FF
