:1009A5004F563A48004F563A4C0020202020002050
:1009B500202D20202D20200020203A20203A202004
:0409C50000543A00A0
:10046D00120BB8120B34120A8C120743120C1B8F8D
:10047D002B120BDB1209508F298E288D278C26E429
:10048D00FFFEFDFCAB29AA28A927A8261201B4500E
:10049D001E7B2D7D037F01120BFEAF29AE28AD27EC
:1004AD00AC2612022D8F2F8E2E8D2D8C2C80157B30
:1004BD002B7D037F01120BFE85292F85282E852785
:1004CD002D85262CAF2FAE2EAD2DAC2C12027CAB74
:1004DD0007AA067534037D047F01120AA97B2E7DC0
:1004ED00077F01120BFEE4FFFE7DC87C42AB2FAAF5
:1004FD002EA92DA82C12000E12027CE47B64FAF9B1
:10050D00F81203CD7534027D087F01120AA9E52B7F
:10051D006076B4010E052AD3E52A648094FD40036C
:10052D00752A7DE52BB40211152AD3E51F6480F8D9
:10053D00E52A6480985002052AE52BB40311051FA6
:10054D00C3E52A6480F8E51F6480984002151FE515
:10055D002BB4040E151FC3E51F6480944950037519
:10056D001FC9E52AFD3395E0FCE4FF1209C97F059B
:10057D007E00120BA3E51FFD3395E0FC7F011209F0
:10058D00C97F057E00120BA3AC2AEC120248AB29E1
:10059D00AA28A927A8261201B4600A40087BFF7A71
:1005AD000979A5801FAC1FEC120248AB29AA28A916
:1005BD0027A8261201B47BFF50067A0979AA800478
:1005CD007A0979AF7D0D7F011209ED120B8DE518BA
:1005DD00C4540FF520E518540FF521E517C4540F39
:1005ED00F522E517540FF523E516C4540FF524E550
:1005FD0016540FF525E520FB7A007534027D017F39
:10060D0002120AA9E521FB7A007534027D047F02EE
:10061D00120AA9E522FB7A007534027D077F0212CA
:10062D000AA9E523FB7A007534027D097F02120ABF
:10063D00A9E524FB7A007534027D0C7F02120AA90C
:10064D00E525FB7A007534027D0F7F02120AA9029F
:02065D0004791E
:100A8C00120A107BFF7A0979B47D017F021209EDFD
:0D0A9C007BFF7A0979BD7D097F020209ED1B
:10074300120BDB7FE87E03120BA3E4FF1209208F59
:100753002A7F011209208F1FD3E52A648094FD505C
:1007630016C3E51F64809449400DD3E51F6480F8E8
:10077300E52A6480985006752A14751F0F7BFF7A4B
:0A0783000979C67D017F010209ED2E
:03000B000206EBFF
:1006EB00C0E0C0F0C083C082C0D075D000C000C0D5
:0D06FB0001C002C003C004C005C006C00756
:10070800758A18758CFC051EE51E7002051DC394BC
:1007180014E51D94004009751D00751E0012084956
:10072800D007D006D005D004D003D002D001D00025
:0B073800D0D0D082D083D0F0D0E032CF
:100BA300EF1FAC0670011E4C600A7D027CEFDCFE79
:040BB300DDFC80ECF9
:010BB700221B
:060BCC00C2A58F80D2A734
:080BD2007F027EEFDEFEDFFC76
:010BDA0022F8
:0A0BF400C2A6120BCCC2A7020BD25E
:100A3200CFCDCFCECCCE12033C7C007D0A12033C3C
:040A4200ED2430FF70
:0A0A4600D2A6120BCCC2A7020BD2FD
:100B4B00AE07BE0104ED148006BE0209ED243F443E
:060B5B0080FF120BF422E2
:100BB8007F38120BF47F0C120BF47F06120BF47FB4
:040BC80001020BF427
:0A0BFE00AC03120B4BAF04020A46D1
:0609ED008B308A318932D3
:1009F300120B4BE4FDAB30AA31A9328D8275830013
:0C0A03001202FDFF6006120A460D80E999
:010A0F0022C4
:0C08BA007F0AEA24FFFDE434FFFC7E000E
:0808C6008E358F368C378D381A
:1008CE007F017E00E4FBEBC39538E5376480F87456
:0E08DE008098500AAC35AD3612032A0B80E824
:0108EC0022E9
:040AA9008A328B33CF
:100AAD00120B4BAA34EAD39400400D1208BAAC32A3
:080ABD00AD33120A321A80ED7C
:010AC500220E
:1007D600120B4BC3EA64809480400B7F2B120A46AF
:1007E6008A3E8B3F800E7F2D120A46C3E49BF53F5F
:1007F600E49AF53EAA3DEAD39400400D1208BAAC3D
:090806003EAD3F120A321A80EDEA
:01080F0022C6
:040810008A428B434A
:10081400120B4BAA44EAD3940040297F101208BC5F
:10082400AC42AD43CFCDCFCECCCE12033CEF540F70
:10083400FEC3940AEE5004243080022437FF120AC7
:04084400461A80D1FF
:01084800228D
:040882008A478B48CE
:10088600120B4BAA49EAD394004028EA24FFFDE460
:1008960034FFFC7F027E001208C6AC47AD48CFCDC0
:1008A600CFCECCCE12033CEF54012430FF120A46C1
:0308B6001A80D2D3
:0108B900221C
:1009C9008F308C318D32120C127FA012097C120BE0
:1009D900E8AF3012097C120BE8AF3212097C120B16
:0409E900E80200031D
:020920008F3016
:10092200120C127FA012097C120BE8AF3012097C64
:10093200120BE8120C127FA112097C120BE8120AA8
:0D094200508F317F01120C08120003AF31FD
:01094F002285
:090C1200D2A0D2A1C2A0C2A1220D
:07000300C2A0D2A1D2A0228D
:02097C00AD07C5
:10097E00E4FB74807E00A803088006CEA2E713CEA7
:10098E0013D8F8FFEDF582EF558224FF92A0D2A185
:06099E00C2A10BBB08DC46
:0109A4002230
:100A5000E4FFD2A0FED2A130A00D7480A8060880C9
:0D0A600002C313D8FC4207C2A10EBE08E875
:010A6D002266
:0A0C0800EF24FF92A0D2A1C2A122A6
:0B0BE800D2A0D2A1A2A0E433FFC2A162
:010BF30022DF
:0D0BDB00120A6E7FCC120B1B7F44020B1B15
:10095000120A6E7FCC120B1B7FBE120B1B120AC633
:100960008F30120AC6EFFEE530FFFDAC06EC120236
:0B09700043E4FBFA7980784112011784
:01097B002259
:100A6E00C2AFD2B7C2B77FF7DFFED2B77F20DFFEAD
:0D0A7E00A2B7E433FE7FF7DFFED2AFAF0674
:010A8B002248
:100B6100C2AFC2B77E04DEFEEF24FF92B77E18DE6D
:050B7100FED2B7D2AF77
:010B7600225C
:100AE300C2AFC2B77F02DFFED2B77F02DFFEA2B77B
:0B0AF300E433FE7F18DFFED2AFAF0639
:010AFE0022D5
:020B1B00AD0724
:100B1D00E4FC7401A804088002C333D8FC5DFF1205
:060B2D000B610CBC08EC9A
:010B3300229F
:100AC600E4FDFC120AE3EF600D7401A8040880023D
:0C0AD600C333D8FC42050CBC08E9AF0596
:010AE20022F1
:050C1B00E4AF4CF54CB4
:010C200022B1
:100B7700E4FF20B1010F20B0027F0220B2027F0301
:050B870020B3027F0411
:010B8C002246
:10084900854A4B120B778F4AE54BB40107E54A708D
:1008590003754C01E54BB40207E54A7003754C0278
:10086900E54BB40307E54A7003754C03E54BB40443
:0808790007E54A7003754C0409
:010881002254
:100B34005389F0438901758A18758CFCC28DD28C57
:070B4400D2A9D2AFC2B92211
:100AFF00070F81838587898B8D070880828486887D
:0B0B0F008A8C071647511320040521B3
:1008ED00E4FEC2B500C2B600D2B500EF1392B4EF6C
:1008FD00C313FFD2B600C2B6000EBE08EEE4FEED85
:10090D001392B4EDC313FDD2B600C2B6000EBE08ED
:02091D00EE00EA
:01091F0022B5
:10078D00E4FEFDFBC2B500C2B600D2B500EF139278
:10079D00B4EFC313FFD2B600C2B6000EBE08EEE42E
:1007AD00FEA2B4E433FDC43333335480FFEBC313E3
:1007BD004FFBD2B600C2B6000EBE08E500D2B600A1
:0807CD00C2B400D2B400AF0376
:0107D5002201
:100A1000E4FCFD7F8E1208ED74082CF8E6FF7416D6
:100A20002CF8E6FD1208ED0CBC07ED7D807F8E02F0
:020A300008EDCF
:100B8D00E4FC740F2CF8E6FF12078D74162CF8A6F2
:050B9D00070CBC07ED90
:010BA2002230
:10000E00EC4D6011E8497017ED33EC3304600DE4EC
:10001E00FCFFFEFD22E933E8330470F80202E81219
:10002E0002B358046009E4CC24815006285009021A
:10003E0002F22840030202EFC0E0EB4A7044B9809E
:10004E0006D0E0FB0202DEEF4E701CBD8008EBFF17
:10005E00EAFEE9FD80EBE98DF0A4FEE5F00200F783
:10006E00E9CDF9EAFEEBFFEF89F0A4FCE5F0CE89CD
:10007E00F0A42EFFE435F0CD89F0A42DFEE435F08A
:10008E008067EF4E7005BD80D780C3EF8BF0A4ACB8
:10009E00F0EE8BF0A42CFCE435F0F8EF8AF0A42CF3
:1000AE00E5F038FCE433CB8DF0A42CFCE5F03BF806
:1000BE00EE8AF0A42CFCE5F038F8E433CF89F0A4F6
:1000CE002CFCE5F038CF3400CE89F0A42FFFE5F0FC
:1000DE003EFEE433C98DF0A42EFEE5F039CD8AF054
:1000EE00A42FFFE5F03EFEE43DFD33D0E0FB5007CC
:1000FE000BBB000F0202F2EC2CFCEF33FFEE33FED3
:06010E00ED33FD0202CA00
:100114000202F2EC5D046005E8590470030202E88F
:100124001202B3580460F6EC4860F2EC7004FDFE71
:10013400FF22C860DB2481C85009C39860025006BE
:100144000202EF9850CAF582E9294B4A7005AB8246
:100154000202DE75F0007C1A7880C3EF9BEE9AED04
:1001640099400DC3EF9BFFEE9AFEED99FDE842F036
:10017400DC23ACF0D0E0FFD0E0FED0E0FDAB822089
:10018400E7101BEB60BAEC2CFCEF33FFEE33FEED13
:1001940033FD0202CAE803F830E705C0F075F00049
:1001A400EF2FFFEE33FEED33FD40B830E7C280AAF7
:1001B40074F8CC6480CCC86480C8F58204604FC3F2
:1001C400EB9FF5F0EA9E42F0E99D42F0E89C45F091
:1001D400603C501DE5825FFFE582D313CB5BCBF41B
:1001E4002B5582FB50280ABA002409B90020088044
:1001F4001DE5825BFBE582D313CF5FCFF4C3132FDE
:100204005582FF50090EBE00050DBD00010CC3EB65
:100214009FF5F0EA9E42F0E99D42F0E89C45F060CB
:0902240007CC4820E701B3EC22ED
:10022D00ED33EC33600A047003BD8004ECB2E7FCDF
:01023D00229E
:10023E0075F020800E75F010800575F0087D007E3B
:10024E00007F003392D530D50312045FEC3340109B
:10025E00EF33FFEE33FEED33FDEC33FCD5F0ED2244
:0E026E00E5F0247EA2D513CC92E7CDCEFF2280
:10027C00EDD2E7CD33EC3392D524814006E4FFFE7A
:10028C00FDFC22FCE4CFCECDCC24E0501174FF80D9
:10029C00EDC3CC13CCCD13CDCE13CECF13CF047076
:0702AC00F030D5DE02045F13
:1002B300E9D2E7C933E833F892D5EDD2E7CD33EC91
:0702C30033FC5002B2D5220A
:1002CA00EC30E7100FBF000C0EBE00080DBD000495
:1002DA000BEB6014A2D5EB13FCED92E7FD2274FF41
:1002EA00FCFDFEFF22E480F8A2D574FF13FC7D809A
:0302FA00E480EFAE
:0300000002065F96
:0C065F00787FE4F6D8FD75814C0206A6F9
:1002FD00BB010CE58229F582E5833AF583E02250B6
:10030D0006E92582F8E622BBFE06E92582F8E222FF
:0D031D00E58229F582E5833AF583E4932219
:10032A00EF8DF0A4A8F0CF8CF0A428CE8DF0A42EE7
:02033A00FE22A1
:10033C00BC000BBE0029EF8DF084FFADF022E4CCA5
:10034C00F875F008EF2FFFEE33FEEC33FCEE9DEC6E
:10035C00984005FCEE9DFE0FD5F0E9E4CEFD22EDB4
:10036C00F8F5F0EE8420D21CFEADF075F008EF2FFE
:10037C00FFED33FD4007985006D5F0F222C398FDEF
:05038C000FD5F0EA228C
:1003910075F008758200EF2FFFEE33FECD33CDCC23
:1003A10033CCC58233C5829BED9AEC99E5829840A6
:1003B1000CF582EE9BFEED9AFDEC99FC0FD5F0D683
:1003C100E4CEFBE4CDFAE4CCF9A88222B800C1B9AD
:1003D1000059BA002DEC8BF084CFCECDFCE5F0CBEB
:1003E100F97818EF2FFFEE33FEED33FDEC33FCEB24
:1003F10033FB10D703994004EB99FB0FD8E5E4F9DF
:10040100FA227818EF2FFFEE33FEED33FDEC33FCCB
:10041100C933C910D7059BE99A4007EC9BFCE99ABF
:10042100F90FD8E0E4C9FAE4CCFB2275F010EF2F04
:10043100FFEE33FEED33FDCC33CCC833C810D70704
:100441009BEC9AE899400AED9BFDEC9AFCE899F83F
:0E0451000FD5F0DAE4CDFBE4CCFAE4C8F922D2
:0E045F00C3E49FFFE49EFEE49DFDE49CFC22AE
:10066B0002046DE493A3F8E493A34003F68001F234
:10067B0008DFF48029E493A3F85407240CC8C33390
:10068B00C4540F4420C8834004F456800146F6DF5F
:10069B00E4800B0102040810204080900AFFE47EE6
:1006AB00019360BCA3FF543F30E509541FFEE49354
:1006BB00A360010ECF54C025E060A840B8E493A31B
:1006CB00FAE493A3F8E493A3C8C582C8CAC583CA46
:1006DB00F0A3C8C582C8CAC583CADFE9DEE780BEFE
:010B1A0000DA
:00000001FF
