:100ADC0020202D20202D20200020203A20203A20DC
:100AEC002000543A004F563A48004F563A4C0020DA
:040AFC002020200096
:1006C000120CD27BFF7A0A79DC7D017F02120B24A7
:1006D0007BFF7A0A79E57D097F02120B24120B4712
:1006E000120CA7E518C4540FF520E518540FF52196
:1006F000E517C4540FF522E517540FF523E516C48A
:10070000540FF524E516540FF525E520FB7A007506
:1007100034027D017F02120BC3E521FB7A007534A0
:10072000027D047F02120BC3E522FB7A00753402BE
:100730007D077F02120BC3E523FB7A007534027D2F
:10074000097F02120BC3E524FB7A007534027D0C8D
:100750007F02120BC3E525FB7A007534027D0F7F03
:0707600002120BC30206E0C8
:1007F300120CD27BFF7A0A79DC7D017F01120B2474
:100803007BFF7A0A79E57D017F02120B24E520FB49
:100813007A007534027D017F01120BC3E521FB7A57
:10082300007534027D047F01120BC3E522FB7A00BD
:100833007534027D077F01120BC3E523FB7A007534
:1008430034027D017F02120BC3E524FB7A00753469
:10085300027D047F02120BC3E525FB7A0075340287
:090863007D077F02120BC380A483
:10046D00120CD2120B477BFF7A0A79DC7D017F02D9
:10047D00120B247BFF7A0A79E57D097F02120B248A
:10048D00120CF57FE87E03120CBDE4FF120A578FA4
:10049D002A7F01120A578F1FD3E52A648094FD50DD
:1004AD0016C3E51F64809449400DD3E51F6480F8A1
:1004BD00E52A6480985006752A14751F0F7BFF7A04
:1004CD000A79EE7D017F01120B24120C4E120D35AF
:1004DD008F2B120CF5120A878F298E288D278C26CB
:1004ED00E4FFFEFDFCAB29AA28A927A8261201B41A
:1004FD00501E7B2D7D037F01120D18AF29AE28AD47
:10050D0027AC2612022D8F2F8E2E8D2D8C2C801523
:10051D007B2B7D037F01120D1885292F85282E85B4
:10052D00272D85262CAF2FAE2EAD2DAC2C12027C97
:10053D00AB07AA067534037D047F01120BC37B2E16
:10054D007D077F01120D18E4FFFE7DC87C42AB2FA5
:10055D00AA2EA92DA82C12000E12027CE47B64FA9F
:10056D00F9F81203CD7534027D087F01120BC3E536
:10057D002B6076B4010E052AD3E52A648094FD40E4
:10058D0003752A7DE52BB40211152AD3E51F64806E
:10059D00F8E52A6480985002052AE52BB40311056D
:1005AD001FC3E52A6480F8E51F6480984002151F7B
:1005BD00E52BB4040E151FC3E51F64809449500349
:1005CD00751FC9E52AFD3395E0FCE4FF120B007F92
:1005DD00057E00120CBDE51FFD3395E0FC7F011279
:1005ED000B007F057E00120CBDAC2AEC120248AB4D
:1005FD0029AA28A927A8261201B4600A40087BFF62
:10060D007A0A79F1801FAC1FEC120248AB29AA2897
:10061D00A927A8261201B47BFF50067A0A79F68025
:10062D00047A0A79FB7D0D7F01120B24120CA7E5CC
:10063D0018C4540FF520E518540FF521E517C454CF
:10064D000FF522E517540FF523E516C4540FF524C5
:10065D00E516540FF525E520FB7A007534027D0172
:10066D007F02120BC3E521FB7A007534027D047FF6
:10067D0002120BC3E522FB7A007534027D077F025F
:10068D00120BC3E523FB7A007534027D097F02123C
:10069D000BC3E524FB7A007534027D0C7F02120B2F
:1006AD00C3E525FB7A007534027D0F7F02120BC363
:0306BD000204DA5A
:03000B0002086C7C
:10086C00C0E0C0F0C083C082C0D075D000C000C052
:0D087C0001C002C003C004C005C006C007D3
:10088900758A18758CFC051EE51E7002051DC3943A
:1008990014E51D94004009751D00751E001209809C
:1008A900D007D006D005D004D003D002D001D000A3
:0B08B900D0D0D082D083D0F0D0E0324D
:100CBD00EF1FAC0670011E4C600A7D027CEFDCFE5E
:040CCD00DDFC80ECDE
:010CD1002200
:060CE600C2A58F80D2A719
:080CEC007F027EEFDEFEDFFC5B
:010CF40022DD
:0A0D0E00C2A6120CE6C2A7020CEC0C
:100B6900CFCDCFCECCCE12033C7C007D0A12033C04
:040B7900ED2430FF38
:0A0B7D00D2A6120CE6C2A7020CEC8F
:100C6500AE07BE0104ED148006BE0209ED243F4423
:060C750080FF120D0E22AB
:100CD2007F38120D0E7F0C120D0E7F06120D0E7F45
:040CE20001020D0EF0
:0A0D1800AC03120C65AF04020B7D62
:060B24008B308A3189329A
:100B2A00120C65E4FDAB30AA31A9328D82758300BF
:0C0B3A001202FDFF6006120B7D0D80E929
:010B4600228C
:0C09F1007F0AEA24FFFDE434FFFC7E00D6
:0809FD008E358F368C378D38E2
:100A05007F017E00E4FBEBC39538E5376480F8741D
:0E0A15008098500AAC35AD3612032A0B80E8EB
:010A230022B0
:040BC3008A328B33B4
:100BC700120C65AA34EAD39400400D1209F1AC3235
:080BD700AD33120B691A80ED29
:010BDF0022F3
:10090D00120C65C3EA64809480400B7F2B120B7D23
:10091D008A3E8B3F800E7F2D120B7DC3E49BF53FEE
:10092D00E49AF53EAA3DEAD39400400D1209F1ACCC
:09093D003EAD3F120B691A80ED7A
:01094600228E
:040947008A428B4312
:10094B00120C65AA44EAD3940040297F101209F3D4
:10095B00AC42AD43CFCDCFCECCCE12033CEF540F38
:10096B00FEC3940AEE5004243080022437FF120B8E
:04097B007D1A80D190
:01097F002255
:0409B9008A478B4896
:1009BD00120C65AA49EAD394004028EA24FFFDE40D
:1009CD0034FFFC7F027E001209FDAC47AD48CFCD50
:1009DD00CFCECCCE12033CEF54012430FF120B7D51
:0309ED001A80D29B
:0109F00022E4
:100B00008F308C318D32120D2C7FA0120AB3120D52
:100B100002AF30120AB3120D02AF32120AB3120D35
:040B200002020003CA
:020A57008F30DE
:100A5900120D2C7FA0120AB3120D02AF30120AB385
:100A6900120D02120D2C7FA1120AB3120D02120BE4
:0D0A7900878F317F01120D22120003AF3173
:010A8600224D
:090D2C00D2A0D2A1C2A0C2A122F2
:07000300C2A0D2A1D2A0228D
:020AB300AD078D
:100AB500E4FB74807E00A803088006CEA2E713CE6F
:100AC50013D8F8FFEDF582EF558224FF92A0D2A14D
:060AD500C2A10BBB08DC0E
:010ADB0022F8
:100B8700E4FFD2A0FED2A130A00D7480A806088091
:0D0B970002C313D8FC4207C2A10EBE08E83D
:010BA400222E
:0A0D2200EF24FF92A0D2A1C2A1228B
:0B0D0200D2A0D2A1A2A0E433FFC2A146
:010D0D0022C3
:0D0CF500120BA57FCC120C357F44020C358C
:100A8700120BA57FCC120C357FBE120C35120BE072
:100A97008F30120BE0EFFEE530FFFDAC06EC1202E3
:0B0AA70043E4FBFA798078411201174C
:010AB2002221
:100BA500C2AFD2B7C2B77FF7DFFED2B77F20DFFE75
:0D0BB500A2B7E433FE7FF7DFFED2AFAF063C
:010BC2002210
:100C7B00C2AFC2B77E04DEFEEF24FF92B77E18DE52
:050C8B00FED2B7D2AF5C
:010C90002241
:100BFD00C2AFC2B77F02DFFED2B77F02DFFEA2B760
:0B0C0D00E433FE7F18DFFED2AFAF061D
:010C180022B9
:020C3500AD0709
:100C3700E4FC7401A804088002C333D8FC5DFF12EA
:060C47000C7B0CBC08EC64
:010C4D002284
:100BE000E4FDFC120BFDEF600D7401A80408800207
:0C0BF000C333D8FC42050CBC08E9AF057B
:010BFC0022D6
:050D3500E4AF4CF54C99
:010D3A002296
:100C9100E4FF20B1010F20B0027F0220B2027F03E6
:050CA10020B3027F04F6
:010CA600222B
:10098000854A4B120C918F4AE54BB40107E54A703A
:1009900003754C01E54BB40207E54A7003754C0240
:1009A000E54BB40307E54A7003754C03E54BB4040B
:0809B00007E54A7003754C04D1
:0109B800221C
:100C4E005389F0438901758A18758CFCC28DD28C3C
:070C5E00D2A9D2AFC2B922F6
:100C1900070F81838587898B8D0708808284868861
:0B0C29008A8C07164751132004052198
:100A2400E4FEC2B500C2B600D2B500EF1392B4EF33
:100A3400C313FFD2B600C2B6000EBE08EEE4FEED4C
:100A44001392B4EDC313FDD2B600C2B6000EBE08B5
:020A5400EE00B2
:010A5600227D
:1008C400E4FEFDFBC2B500C2B600D2B500EF139240
:1008D400B4EFC313FFD2B600C2B6000EBE08EEE4F6
:1008E400FEA2B4E433FDC43333335480FFEBC313AB
:1008F4004FFBD2B600C2B6000EBE08E500D2B60069
:08090400C2B400D2B400AF033D
:01090C0022C8
:100B4700E4FCFD7F8E120A2474082CF8E6FF741665
:100B57002CF8E6FD120A240CBC07ED7D807F8E027F
:020B67000A245E
:100CA700E4FC740F2CF8E6FF1208C474162CF8A69F
:050CB700070CBC07ED75
:010CBC002215
:10000E00EC4D6011E8497017ED33EC3304600DE4EC
:10001E00FCFFFEFD22E933E8330470F80202E81219
:10002E0002B358046009E4CC24815006285009021A
:10003E0002F22840030202EFC0E0EB4A7044B9809E
:10004E0006D0E0FB0202DEEF4E701CBD8008EBFF17
:10005E00EAFEE9FD80EBE98DF0A4FEE5F00200F783
:10006E00E9CDF9EAFEEBFFEF89F0A4FCE5F0CE89CD
:10007E00F0A42EFFE435F0CD89F0A42DFEE435F08A
:10008E008067EF4E7005BD80D780C3EF8BF0A4ACB8
:10009E00F0EE8BF0A42CFCE435F0F8EF8AF0A42CF3
:1000AE00E5F038FCE433CB8DF0A42CFCE5F03BF806
:1000BE00EE8AF0A42CFCE5F038F8E433CF89F0A4F6
:1000CE002CFCE5F038CF3400CE89F0A42FFFE5F0FC
:1000DE003EFEE433C98DF0A42EFEE5F039CD8AF054
:1000EE00A42FFFE5F03EFEE43DFD33D0E0FB5007CC
:1000FE000BBB000F0202F2EC2CFCEF33FFEE33FED3
:06010E00ED33FD0202CA00
:100114000202F2EC5D046005E8590470030202E88F
:100124001202B3580460F6EC4860F2EC7004FDFE71
:10013400FF22C860DB2481C85009C39860025006BE
:100144000202EF9850CAF582E9294B4A7005AB8246
:100154000202DE75F0007C1A7880C3EF9BEE9AED04
:1001640099400DC3EF9BFFEE9AFEED99FDE842F036
:10017400DC23ACF0D0E0FFD0E0FED0E0FDAB822089
:10018400E7101BEB60BAEC2CFCEF33FFEE33FEED13
:1001940033FD0202CAE803F830E705C0F075F00049
:1001A400EF2FFFEE33FEED33FD40B830E7C280AAF7
:1001B40074F8CC6480CCC86480C8F58204604FC3F2
:1001C400EB9FF5F0EA9E42F0E99D42F0E89C45F091
:1001D400603C501DE5825FFFE582D313CB5BCBF41B
:1001E4002B5582FB50280ABA002409B90020088044
:1001F4001DE5825BFBE582D313CF5FCFF4C3132FDE
:100204005582FF50090EBE00050DBD00010CC3EB65
:100214009FF5F0EA9E42F0E99D42F0E89C45F060CB
:0902240007CC4820E701B3EC22ED
:10022D00ED33EC33600A047003BD8004ECB2E7FCDF
:01023D00229E
:10023E0075F020800E75F010800575F0087D007E3B
:10024E00007F003392D530D50312045FEC3340109B
:10025E00EF33FFEE33FEED33FDEC33FCD5F0ED2244
:0E026E00E5F0247EA2D513CC92E7CDCEFF2280
:10027C00EDD2E7CD33EC3392D524814006E4FFFE7A
:10028C00FDFC22FCE4CFCECDCC24E0501174FF80D9
:10029C00EDC3CC13CCCD13CDCE13CECF13CF047076
:0702AC00F030D5DE02045F13
:1002B300E9D2E7C933E833F892D5EDD2E7CD33EC91
:0702C30033FC5002B2D5220A
:1002CA00EC30E7100FBF000C0EBE00080DBD000495
:1002DA000BEB6014A2D5EB13FCED92E7FD2274FF41
:1002EA00FCFDFEFF22E480F8A2D574FF13FC7D809A
:0302FA00E480EFAE
:030000000207678D
:0C076700787FE4F6D8FD75814C0207AEE7
:1002FD00BB010CE58229F582E5833AF583E02250B6
:10030D0006E92582F8E622BBFE06E92582F8E222FF
:0D031D00E58229F582E5833AF583E4932219
:10032A00EF8DF0A4A8F0CF8CF0A428CE8DF0A42EE7
:02033A00FE22A1
:10033C00BC000BBE0029EF8DF084FFADF022E4CCA5
:10034C00F875F008EF2FFFEE33FEEC33FCEE9DEC6E
:10035C00984005FCEE9DFE0FD5F0E9E4CEFD22EDB4
:10036C00F8F5F0EE8420D21CFEADF075F008EF2FFE
:10037C00FFED33FD4007985006D5F0F222C398FDEF
:05038C000FD5F0EA228C
:1003910075F008758200EF2FFFEE33FECD33CDCC23
:1003A10033CCC58233C5829BED9AEC99E5829840A6
:1003B1000CF582EE9BFEED9AFDEC99FC0FD5F0D683
:1003C100E4CEFBE4CDFAE4CCF9A88222B800C1B9AD
:1003D1000059BA002DEC8BF084CFCECDFCE5F0CBEB
:1003E100F97818EF2FFFEE33FEED33FDEC33FCEB24
:1003F10033FB10D703994004EB99FB0FD8E5E4F9DF
:10040100FA227818EF2FFFEE33FEED33FDEC33FCCB
:10041100C933C910D7059BE99A4007EC9BFCE99ABF
:10042100F90FD8E0E4C9FAE4CCFB2275F010EF2F04
:10043100FFEE33FEED33FDCC33CCC833C810D70704
:100441009BEC9AE899400AED9BFDEC9AFCE899F83F
:0E0451000FD5F0DAE4CDFBE4CCFAE4C8F922D2
:0E045F00C3E49FFFE49EFEE49DFDE49CFC22AE
:1007730002046DE493A3F8E493A34003F68001F22B
:1007830008DFF48029E493A3F85407240CC8C33387
:10079300C4540F4420C8834004F456800146F6DF56
:1007A300E4800B0102040810204080900C19E47EC1
:1007B300019360BCA3FF543F30E509541FFEE4934B
:1007C300A360010ECF54C025E060A840B8E493A312
:1007D300FAE493A3F8E493A3C8C582C8CAC583CA3D
:1007E300F0A3C8C582C8CAC583CADFE9DEE780BEF5
:010C340000BF
:00000001FF
