:100A540020202D20202D20200020203A20203A2064
:100A64002000543A0054483A00544C3A004F563A45
:0C0A740048004F563A4C00202020200083
:10068D00120CA77BFF7A0A79547D017F01120AF9BA
:10069D007BFF7A0A795D7D017F02120AF9120B1C2C
:1006AD00120C7CE518C4540FF520E518540FF521F4
:1006BD00E517C4540FF522E517540FF523E516C4BD
:1006CD00540FF524E516540FF525E520FB7A00753A
:1006DD0034027D017F01120B98E521FB7A00753400
:1006ED00027D047F01120B98E522FB7A007534021E
:1006FD007D077F01120B98E523FB7A007534027D8F
:10070D00017F02120B98E524FB7A007534027D04FB
:10071D007F02120B98E525FB7A007534027D077F69
:07072D0002120B980206AD59
:1007C000120CA77BFF7A0A79547D017F01120AF986
:1007D0007BFF7A0A795D7D017F02120AF9E520FB31
:1007E0007A007534027D017F01120B98E521FB7AB6
:1007F000007534027D047F01120B98E522FB7A001C
:100800007534027D077F01120B98E523FB7A007592
:1008100034027D017F02120B98E524FB7A007534C7
:10082000027D047F02120B98E525FB7A00753402E5
:090830007D077F02120B9880A4E1
:10046D00120B1C120CCA7FE87E03120C92E4FF12D1
:10047D000A248F2A7F01120A248F1FD3E52A648054
:10048D0094FD5016C3E51F64809449400DD3E51FBC
:10049D006480F8E52A6480985006752A14751F0F3C
:1004AD00120CA77BFF7A0A79667D017F01120AF98A
:1004BD007BFF7A0A79697D017F02120AF97BFF7A47
:1004CD000A796D7D097F02120AF9E52AFB3395E061
:1004DD00FA7534037D047F021208DAE51FFB3395AC
:1004ED00E0FA7534037D0C7F021208DA120C231228
:1004FD000D0A8F2B120CCA120A808F298E288D2778
:10050D008C26E4FFFEFDFCAB29AA28A927A82612FC
:10051D0001B4501E7B2D7D037F01120CEDAF29AE72
:10052D0028AD27AC2612022D8F2F8E2E8D2D8C2CC3
:10053D0080157B2B7D037F01120CED85292F8528DE
:10054D002E85272D85262CAF2FAE2EAD2DAC2C1242
:10055D00027CAB07AA067534037D047F01120B984C
:10056D007B2E7D077F01120CEDE4FFFE7DC87C42E2
:10057D00AB2FAA2EA92DA82C12000E12027CE47B03
:10058D0064FAF9F81203CD7534027D087F01120B60
:10059D0098E52B700302063DB4010E052AD3E52A1A
:1005AD00648094FD4003752A7DE52BB40211152A54
:1005BD00D3E51F6480F8E52A6480985002052AE58A
:1005CD002BB40311051FC3E52A6480F8E51F648071
:1005DD00984002151FE52BB4040E151FC3E51F64CB
:1005ED008094495003751FC9E52AFB3395E0FA75D0
:1005FD0034037D047F021208DAE51FFB3395E0FA20
:10060D007534037D0C7F021208DAE52AFD3395E07F
:10061D00FCE4FF120AD57F057E00120C92E51FFD4A
:10062D003395E0FC7F01120AD57F057E00120C92F6
:10063D00AC2AEC120248AB29AA28A927A826120138
:10064D00B4600A40087BFF7A0A79718019AC1FECFF
:10065D00120248AB29AA28A927A8261201B45010C6
:10066D007BFF7A0A79767D0D7F01120AF90204FC6F
:10067D007BFF7A0A797B7D0D7F01120AF90204FC5A
:03000B00020839AF
:10083900C0E0C0F0C083C082C0D075D000C000C085
:0D08490001C002C003C004C005C006C00706
:10085600758A18758CFC051EE51E7002051DC3946D
:1008660014E51D94004009751D00751E0012094D02
:10087600D007D006D005D004D003D002D001D000D6
:0B088600D0D0D082D083D0F0D0E03280
:100C9200EF1FAC0670011E4C600A7D027CEFDCFE89
:040CA200DDFC80EC09
:010CA600222B
:060CBB00C2A58F80D2A744
:080CC1007F027EEFDEFEDFFC86
:010CC9002208
:0A0CE300C2A6120CBBC2A7020CC18E
:100B3E00CFCDCFCECCCE12033C7C007D0A12033C2F
:040B4E00ED2430FF63
:0A0B5200D2A6120CBBC2A7020CC110
:100C3A00AE07BE0104ED148006BE0209ED243F444E
:060C4A0080FF120CE32202
:100CA7007F38120CE37F0C120CE37F06120CE37FF4
:040CB70001020CE347
:0A0CED00AC03120C3AAF04020B52E4
:060AF9008B308A318932C6
:100AFF00120C3AE4FDAB30AA31A9328D8275830016
:0C0B0F001202FDFF6006120B520D80E97F
:010B1B0022B7
:0C09BE007F0AEA24FFFDE434FFFC7E0009
:0809CA008E378F388C398D3A0D
:1009D2007F017E00E4FBEBC3953AE5396480F8744D
:0E09E2008098500AAC37AD3812032A0B80E81B
:0109F00022E4
:040B98008A328B33DF
:100B9C00120C3AAA34EAD39400400D1209BEAC32BE
:080BAC00AD33120B3E1A80ED7F
:010BB400221E
:1008DA00120C3AC3EA64809480400B7F2B120B52AD
:1008EA008A358B36800E7F2D120B52C3E49BF53668
:1008FA00E49AF535AA34EAD39400400D1209BEAC45
:09090A0035AD36120B3E1A80EDEA
:0109130022C1
:040914008A3D8B3E4F
:10091800120C3AAA3FEAD3940040297F101209C06A
:10092800AC3DAD3ECFCDCFCECCCE12033CEF540F75
:10093800FEC3940AEE5004243080022437FF120BC1
:04094800521A80D1EE
:01094C002288
:040986008A428B43D3
:10098A00120C3AAA44EAD394004028EA24FFFDE470
:10099A0034FFFC7F027E001209CAAC42AD43CFCDC0
:1009AA00CFCECCCE12033CEF54012430FF120B52AF
:0309BA001A80D2CE
:0109BD002217
:100AD5008F308C318D32120D017FA0120AAC120CB1
:100AE500D7AF30120AAC120CD7AF32120AAC120CC7
:040AF500D702000321
:020A24008F3011
:100A2600120D017FA0120AAC120CD7AF30120AAC1D
:100A3600120CD7120D017FA1120AAC120CD7120BA1
:0D0A46005C8F317F01120CF7120003AF31FD
:010A53002280
:090D0100D2A0D2A1C2A0C2A1221D
:07000300C2A0D2A1D2A0228D
:020AAC00AD0794
:100AAE00E4FB74807E00A803088006CEA2E713CE76
:100ABE0013D8F8FFEDF582EF558224FF92A0D2A154
:060ACE00C2A10BBB08DC15
:010AD40022FF
:100B5C00E4FFD2A0FED2A130A00D7480A8060880BC
:0D0B6C0002C313D8FC4207C2A10EBE08E868
:010B79002259
:0A0CF700EF24FF92A0D2A1C2A122B7
:0B0CD700D2A0D2A1A2A0E433FFC2A172
:010CE20022EF
:0D0CCA00120B7A7FCC120C0A7F44020C0A38
:100A8000120B7A7FCC120C0A7FBE120C0A120BB525
:100A90008F30120BB5EFFEE530FFFDAC06EC120215
:0B0AA00043E4FBFA7980784112011753
:010AAB002228
:100B7A00C2AFD2B7C2B77FF7DFFED2B77F20DFFEA0
:0D0B8A00A2B7E433FE7FF7DFFED2AFAF0667
:010B9700223B
:100C5000C2AFC2B77E04DEFEEF24FF92B77E18DE7D
:050C6000FED2B7D2AF87
:010C6500226C
:100BD200C2AFC2B77F02DFFED2B77F02DFFEA2B78B
:0B0BE200E433FE7F18DFFED2AFAF0649
:010BED0022E5
:020C0A00AD0734
:100C0C00E4FC7401A804088002C333D8FC5DFF1215
:060C1C000C500CBC08ECBA
:010C220022AF
:100BB500E4FDFC120BD2EF600D7401A8040880025D
:0C0BC500C333D8FC42050CBC08E9AF05A6
:010BD1002201
:050D0A00E4AF47F547CE
:010D0F0022C1
:100C6600E4FF20B1010F20B0027F0220B2027F0311
:050C760020B3027F0421
:010C7B002256
:10094D00854546120C668F45E546B40107E54570B1
:10095D0003754701E546B40207E545700375470287
:10096D00E546B40307E5457003754703E546B40452
:08097D0007E54570037547040E
:01098500224F
:100C23005389F0438901758A18758CFCC28DD28C67
:070C3300D2A9D2AFC2B92221
:100BEE00070F81838587898B8D070880828486888D
:0B0BFE008A8C071647511320040521C4
:1009F100E4FEC2B500C2B600D2B500EF1392B4EF67
:100A0100C313FFD2B600C2B6000EBE08EEE4FEED7F
:100A11001392B4EDC313FDD2B600C2B6000EBE08E8
:020A2100EE00E5
:010A230022B0
:10089100E4FEFDFBC2B500C2B600D2B500EF139273
:1008A100B4EFC313FFD2B600C2B6000EBE08EEE429
:1008B100FEA2B4E433FDC43333335480FFEBC313DE
:1008C1004FFBD2B600C2B6000EBE08E500D2B6009C
:0808D100C2B400D2B400AF0371
:0108D90022FC
:100B1C00E4FCFD7F8E1209F174082CF8E6FF7416C4
:100B2C002CF8E6FD1209F10CBC07ED7D807F8E02DE
:020B3C0009F1BD
:100C7C00E4FC740F2CF8E6FF12089174162CF8A6FD
:050C8C00070CBC07EDA0
:010C91002240
:10000E00EC4D6011E8497017ED33EC3304600DE4EC
:10001E00FCFFFEFD22E933E8330470F80202E81219
:10002E0002B358046009E4CC24815006285009021A
:10003E0002F22840030202EFC0E0EB4A7044B9809E
:10004E0006D0E0FB0202DEEF4E701CBD8008EBFF17
:10005E00EAFEE9FD80EBE98DF0A4FEE5F00200F783
:10006E00E9CDF9EAFEEBFFEF89F0A4FCE5F0CE89CD
:10007E00F0A42EFFE435F0CD89F0A42DFEE435F08A
:10008E008067EF4E7005BD80D780C3EF8BF0A4ACB8
:10009E00F0EE8BF0A42CFCE435F0F8EF8AF0A42CF3
:1000AE00E5F038FCE433CB8DF0A42CFCE5F03BF806
:1000BE00EE8AF0A42CFCE5F038F8E433CF89F0A4F6
:1000CE002CFCE5F038CF3400CE89F0A42FFFE5F0FC
:1000DE003EFEE433C98DF0A42EFEE5F039CD8AF054
:1000EE00A42FFFE5F03EFEE43DFD33D0E0FB5007CC
:1000FE000BBB000F0202F2EC2CFCEF33FFEE33FED3
:06010E00ED33FD0202CA00
:100114000202F2EC5D046005E8590470030202E88F
:100124001202B3580460F6EC4860F2EC7004FDFE71
:10013400FF22C860DB2481C85009C39860025006BE
:100144000202EF9850CAF582E9294B4A7005AB8246
:100154000202DE75F0007C1A7880C3EF9BEE9AED04
:1001640099400DC3EF9BFFEE9AFEED99FDE842F036
:10017400DC23ACF0D0E0FFD0E0FED0E0FDAB822089
:10018400E7101BEB60BAEC2CFCEF33FFEE33FEED13
:1001940033FD0202CAE803F830E705C0F075F00049
:1001A400EF2FFFEE33FEED33FD40B830E7C280AAF7
:1001B40074F8CC6480CCC86480C8F58204604FC3F2
:1001C400EB9FF5F0EA9E42F0E99D42F0E89C45F091
:1001D400603C501DE5825FFFE582D313CB5BCBF41B
:1001E4002B5582FB50280ABA002409B90020088044
:1001F4001DE5825BFBE582D313CF5FCFF4C3132FDE
:100204005582FF50090EBE00050DBD00010CC3EB65
:100214009FF5F0EA9E42F0E99D42F0E89C45F060CB
:0902240007CC4820E701B3EC22ED
:10022D00ED33EC33600A047003BD8004ECB2E7FCDF
:01023D00229E
:10023E0075F020800E75F010800575F0087D007E3B
:10024E00007F003392D530D50312045FEC3340109B
:10025E00EF33FFEE33FEED33FDEC33FCD5F0ED2244
:0E026E00E5F0247EA2D513CC92E7CDCEFF2280
:10027C00EDD2E7CD33EC3392D524814006E4FFFE7A
:10028C00FDFC22FCE4CFCECDCC24E0501174FF80D9
:10029C00EDC3CC13CCCD13CDCE13CECF13CF047076
:0702AC00F030D5DE02045F13
:1002B300E9D2E7C933E833F892D5EDD2E7CD33EC91
:0702C30033FC5002B2D5220A
:1002CA00EC30E7100FBF000C0EBE00080DBD000495
:1002DA000BEB6014A2D5EB13FCED92E7FD2274FF41
:1002EA00FCFDFEFF22E480F8A2D574FF13FC7D809A
:0302FA00E480EFAE
:03000000020734C0
:0C073400787FE4F6D8FD75814702077B52
:1002FD00BB010CE58229F582E5833AF583E02250B6
:10030D0006E92582F8E622BBFE06E92582F8E222FF
:0D031D00E58229F582E5833AF583E4932219
:10032A00EF8DF0A4A8F0CF8CF0A428CE8DF0A42EE7
:02033A00FE22A1
:10033C00BC000BBE0029EF8DF084FFADF022E4CCA5
:10034C00F875F008EF2FFFEE33FEEC33FCEE9DEC6E
:10035C00984005FCEE9DFE0FD5F0E9E4CEFD22EDB4
:10036C00F8F5F0EE8420D21CFEADF075F008EF2FFE
:10037C00FFED33FD4007985006D5F0F222C398FDEF
:05038C000FD5F0EA228C
:1003910075F008758200EF2FFFEE33FECD33CDCC23
:1003A10033CCC58233C5829BED9AEC99E5829840A6
:1003B1000CF582EE9BFEED9AFDEC99FC0FD5F0D683
:1003C100E4CEFBE4CDFAE4CCF9A88222B800C1B9AD
:1003D1000059BA002DEC8BF084CFCECDFCE5F0CBEB
:1003E100F97818EF2FFFEE33FEED33FDEC33FCEB24
:1003F10033FB10D703994004EB99FB0FD8E5E4F9DF
:10040100FA227818EF2FFFEE33FEED33FDEC33FCCB
:10041100C933C910D7059BE99A4007EC9BFCE99ABF
:10042100F90FD8E0E4C9FAE4CCFB2275F010EF2F04
:10043100FFEE33FEED33FDCC33CCC833C810D70704
:100441009BEC9AE899400AED9BFDEC9AFCE899F83F
:0E0451000FD5F0DAE4CDFBE4CCFAE4C8F922D2
:0E045F00C3E49FFFE49EFEE49DFDE49CFC22AE
:1007400002046DE493A3F8E493A34003F68001F25E
:1007500008DFF48029E493A3F85407240CC8C333BA
:10076000C4540F4420C8834004F456800146F6DF89
:10077000E4800B0102040810204080900BEEE47E20
:10078000019360BCA3FF543F30E509541FFEE4937E
:10079000A360010ECF54C025E060A840B8E493A345
:1007A000FAE493A3F8E493A3C8C582C8CAC583CA70
:1007B000F0A3C8C582C8CAC583CADFE9DEE780BE28
:010C090000EA
:00000001FF
