:10016A00C0F9A4B0999282F88090804020100804C7
:10017A000201C0F9A4B0999282F880908CBFC6A1FE
:03018A0086FFBF2E
:0A01AA00080800000000000000003B
:10018D00751001751102751203751304751405753B
:0D019D00150675160775170812010880FB7E
:10010800747C25101201497F011201531201417FAD
:1001180002120153C294D294747C25121201497FB1
:1001280004120153C294D294747C25131201497F9E
:0801380008120153C294D29495
:01014000229C
:10008F00747C25101201497F011201531201417F27
:10009F0002120153C294D294747C25121201497F2B
:1000AF0004120153C294D294747C25131201497F18
:1000BF0008120153C294D294747C25141201497F03
:1000CF0010120153C294D294747C25151201497FEA
:1000DF0020120153C294D294747C25161201497FC9
:1000EF0040120153C294D294747C25171201497F98
:0800FF0080120153C294D29457
:0101070022D5
:10014100C294D294747C2511F582E43401F583E4E0
:0201510093FF1A
:100153007E08EF30E704D2938002C293EF25E0FFDD
:06016300C295D295DEEC0E
:010169002273
:03000000020003F8
:0C000300787FE4F6D8FD75811702004AF2
:10000F0002018DE493A3F8E493A34003F68001F279
:10001F0008DFF48029E493A3F85407240CC8C333F2
:10002F00C4540F4420C8834004F456800146F6DFC1
:10003F00E4800B01020408102040809001AAE47EA6
:10004F00019360BCA3FF543F30E509541FFEE493B6
:10005F00A360010ECF54C025E060A840B8E493A37D
:10006F00FAE493A3F8E493A3C8C582C8CAC583CAA8
:10007F00F0A3C8C582C8CAC583CADFE9DEE780BE60
:0101B400004A
:00000001FF
