:1003150000000000000000006432190C0603010013
:100325000000000000000000000103060C19326403
:060257008B398A3A893B55
:10025D00ED7E0024FFF582EE34FFF583120112FFCF
:10026D00ED14FEEED394004020EE7C0024FFF582C9
:10027D00EC34FFF583AB39AA3AA93B1201128E82F9
:10028D007583001201511E80DAAB39AA3AA93BEFF2
:03029D0002013F1C
:0602A0008B398A3A893B0C
:1002A600ED14FF1200F9F53CE4FEEEC39F501BEE81
:1002B600F582758300A3AB39AA3AA93B1201128EC7
:1002C600827583001201510E80E0AB39AA3AA93B30
:0A02D6008F82758300E53C020151A0
:1002E0007B007A0079287D101202A07B007A0079C9
:1002F00018120257E4FF74182FF8E6FE74282FF83E
:10030000E6FDD39E4004AE05800074082FF8A606D3
:040310000FBF10E229
:0103140022C6
:08020A007B007A0079087F04F3
:080212008F398B3A8A3B893CCD
:10021A00AF391539EF6035E4FEEEC3946450F1E46A
:10022A00FDFFAB3AAA3BA93C8F82758300120112EB
:10023A00FCEEC39C400D7401A807088002C333D8A2
:0C024A00FC42050FBF08DB8DA00E80CD2C
:010256002285
:1001730078087C007D007BFF7A0379257E007F1061
:100183001200D3E4F5387B007A0079087D1012025F
:100193005712020A0538E538C3940940E978087C08
:1001A300007D007BFF7A0379157E007F101200D358
:1001B300E4F5387B007A0079087D101202A0120260
:1001C3000A0538E538C3940940E978287C007D00A6
:1001D3007BFF7A0379157E007F101200D378187C99
:1001E300007D007BFF7A0379257E007F101200D308
:1001F300E4F538E538C3940F40030201731202E0BB
:0702030012020A053880EC2D
:03000000020335C3
:0C033500787FE4F6D8FD75813C0201736E
:10000300E709F608DFFA8046E709F208DFFA803EDF
:1000130088828C83E709F0A3DFFA8032E309F608CC
:10002300DFFA8078E309F208DFFA807088828C8334
:10003300E309F0A3DFFA806489828A83E0A3F608E8
:10004300DFFA805889828A83E0A3F208DFFA804CC2
:1000530080D280FA80C680D4806980F28033801099
:1000630080A680EA809A80A880DA80E280CA803302
:1000730089828A83ECFAE493A3C8C582C8CCC5837A
:10008300CCF0A3C8C582C8CCC583CCDFE9DEE7804A
:100093000D89828A83E493A3F608DFF9ECFAA9F0C9
:1000A300EDFB2289828A83ECFAE0A3C8C582C8CC1F
:1000B300C583CCF0A3C8C582C8CCC583CCDFEADE38
:1000C300E880DB89828A83E493A3F208DFF980CC9A
:1000D30088F0EF60010E4E60C388F0ED2402B40493
:1000E3000050B9F582EB2402B4040050AF2323453A
:0600F3008223900053730C
:1000F900BB010689828A83E0225002E722BBFE0205
:09010900E32289828A83E4932237
:10011200BB010CE58229F582E5833AF583E02250A2
:1001220006E92582F8E622BBFE06E92582F8E222EC
:0D013200E58229F582E5833AF583E4932206
:10013F00BB010689828A83F0225002F722BBFE019F
:02014F00F32299
:10015100F8BB010DE58229F582E5833AF583E8F0E4
:10016100225006E92582C8F622BBFE05E92582C890
:02017100F22278
:00000001FF
