:1002480012028D12022DE525B4010575A0FE80F677
:0A025800E525B402F175A0FD80EC6D
:030023000200BA1E
:1000BA00C0E0C0F0C083C082C0D075D000C000C00C
:1000CA0001C002C003C004C005C006C00730981AA8
:1000DA00859925AF991202D0AF99EFFB7A00750C7A
:1000EA00027D017F01120149C298D007D006D005CE
:1000FA00D004D003D002D001D000D0D0D082D08397
:05010A00D0F0D0E0324E
:10027800EF1FAC0670011E4C600A7D027CEFDCFEAD
:04028800DDFC80EC2D
:01028C00224F
:10022D0043878075985053890F438920758BFA75D4
:0B023D008DFAC2ABD28ED2AFD2AC2241
:0802D0008F993099FDC29922BB
:0602A100C2A58F80D2A768
:0802A7007F027EEFDEFEDFFCAA
:0102AF00222C
:0A02BC00C2A61202A1C2A70202A707
:10000300CFCDCFCECCCE1200657C007D0A12006529
:04001300ED2430FFA9
:0A001700D2A61202A1C2A70202A79E
:10026200AE07BE0104ED148006BE0209ED243F4430
:0602720080FF1202BC2215
:10028D007F381202BC7F0C1202BC7F061202BC7FAB
:04029D00010202BC9C
:0A02C600AC03120262AF040200173D
:0601ED008B228A23892405
:1001F300120262E4FDAB22AA23A9248D8275830037
:0C020300120026FF60061200170D80E9B3
:01020F0022CC
:0C01BA007F0AEA24FFFDE434FFFC7E0015
:0801C6008E0D8F0E8C0F8D10C1
:1001CE007F017E00E4FBEBC39510E50F6480F874AD
:0E01DE008098500AAC0DAD0E1200530B80E855
:0101EC0022F0
:040210008A1A8B1BA0
:10021400120262AA1CEAD39400400D1201BAAC1A6D
:08022400AD1B1200031A80ED6E
:01022C0022AF
:10010F00120262C3EA64809480400B7F2B120017A7
:10011F008A168B17800E7F2D120017C3E49BF517DD
:10012F00E49AF516AA15EAD39400400D1201BAAC61
:09013F0016AD171200031A80ED41
:010148002294
:040149008A0A8B0B88
:10014D00120262AA0CEAD3940040297F101201BC5E
:10015D00AC0AAD0BCFCDCFCECCCE120065EF540F88
:10016D00FEC3940AEE5004243080022437FF12009F
:04017D00171A80D1FC
:01018100225B
:040182008A1F8B2025
:10018600120262AA21EAD394004028EA24FFFDE481
:1001960034FFFC7F027E001201C6AC1FAD20CFCD1E
:1001A600CFCECCCE120065EF54012430FF120017DB
:0301B6001A80D2DA
:0101B9002223
:030000000202B049
:0C02B000787FE4F6D8FD75812502024835
:10002600BB010CE58229F582E5833AF583E022508F
:1000360006E92582F8E622BBFE06E92582F8E222D9
:0D004600E58229F582E5833AF583E49322F3
:10005300EF8DF0A4A8F0CF8CF0A428CE8DF0A42EC1
:02006300FE227B
:10006500BC000BBE0029EF8DF084FFADF022E4CC7F
:10007500F875F008EF2FFFEE33FEEC33FCEE9DEC48
:10008500984005FCEE9DFE0FD5F0E9E4CEFD22ED8E
:10009500F8F5F0EE8420D21CFEADF075F008EF2FD8
:1000A500FFED33FD4007985006D5F0F222C398FDC9
:0500B5000FD5F0EA2266
:00000001FF
