:0B03CF004C69676874204C65643A00BC
:10019A001203AC1203FA7BFF7A0379CF7D017F0148
:1001AA001202BAE525C39401401BE525D3940850F1
:1001BA0014E52514FF7401A807088002C333D8FC8C
:1001CA00F4F5A080DEE5257004F5A080D675A0FFC1
:0201DA0080D1D2
:10039700EF1FAC0670011E4C600A7D027CEFDCFE8D
:0403A700DDFC80EC0D
:0103AB00222F
:0303F600012500DE
:0303FA0002036695
:1002FA0043878075985053890F438920758BD07531
:0B030A008DD0C2ABD28ED2AFD2AC229D
:1003150043878075985053890F438920758BE875FD
:0B0325008DE8C2ABD28ED2AFD2AC226A
:1003300075985043878053890F438920758BF475D6
:0B0340008DF4C2ABD28ED2AFD2AC2243
:10034B0043878075985053890F438920758BFA75B5
:0B035B008DFAC2ABD28ED2AFD2AC2222
:1003660043878075985053890F438920758BF375A1
:0B0376008DF3C2ABD28ED2AFD2AC220E
:0803EE008F993099FDC299229C
:0300230002014691
:10014600C0E0C0F0C083C082C0D075D000C000C07F
:1001560001C002C003C004C005C006C0073098191C
:10016600859925AF251203EEE525FB7A00750C026D
:100176007D0B7F01120216C298D007D006D005D09B
:1001860004D003D002D001D000D0D0D082D083D00A
:04019600F0D0E03293
:0603C000C2A58F80D2A748
:0803C6007F027EEFDEFEDFFC8A
:0103CE00220C
:0A03DA00C2A61203C0C2A70203C6A8
:10000300CFCDCFCECCCE1200657C007D0A12006529
:04001300ED2430FFA9
:0A001700D2A61203C0C2A70203C65E
:10038100AE07BE0104ED148006BE0209ED243F4410
:0603910080FF1203DA22D6
:1003AC007F381203DA7F0C1203DA7F061203DA7F2E
:0403BC00010203DA5D
:0A03E400AC03120381AF04020017FE
:0602BA008B118A1289136A
:1002C000120381E4FDAB11AA12A9138D827583007C
:0C02D000120026FF60061200170D80E9E6
:0102DC0022FF
:0C0287007F0AEA24FFFDE434FFFC7E0047
:080293008E0D8F0E8C0F8D10F3
:10029B007F017E00E4FBEBC39510E50F6480F874DF
:0E02AB008098500AAC0DAD0E1200530B80E887
:0102B9002222
:0402DD008A1D8B1ECD
:1002E100120381AA1FEAD39400400D120287AC1DAC
:0802F100AD1E1200031A80ED9E
:0102F90022E2
:1001DC00120381C3EA64809480400B7F2B120017BA
:1001EC008A198B1A800E7F2D120017C3E49BF51A07
:1001FC00E49AF519AA18EAD39400400D120287ACC0
:09020C0019AD1A1200031A80ED6D
:0102150022C6
:040216008A0A8B0BBA
:10021A00120381AA0CEAD3940040297F10120289A2
:10022A00AC0AAD0BCFCDCFCECCCE120065EF540FBA
:10023A00FEC3940AEE5004243080022437FF1200D1
:04024A00171A80D12E
:01024E00228D
:04024F008A228B2351
:10025300120381AA24EAD394004028EA24FFFDE490
:1002630034FFFC7F027E00120293AC22AD23CFCD7C
:10027300CFCECCCE120065EF54012430FF1200170D
:030283001A80D20C
:010286002255
:030000000200BA41
:0C00BA00787FE4F6D8FD75812502010175
:10002600BB010CE58229F582E5833AF583E022508F
:1000360006E92582F8E622BBFE06E92582F8E222D9
:0D004600E58229F582E5833AF583E49322F3
:10005300EF8DF0A4A8F0CF8CF0A428CE8DF0A42EC1
:02006300FE227B
:10006500BC000BBE0029EF8DF084FFADF022E4CC7F
:10007500F875F008EF2FFFEE33FEEC33FCEE9DEC48
:10008500984005FCEE9DFE0FD5F0E9E4CEFD22ED8E
:10009500F8F5F0EE8420D21CFEADF075F008EF2FD8
:1000A500FFED33FD4007985006D5F0F222C398FDC9
:0500B5000FD5F0EA2266
:1000C60002019AE493A3F8E493A34003F68001F2B5
:1000D60008DFF48029E493A3F85407240CC8C3333B
:1000E600C4540F4420C8834004F456800146F6DF0A
:1000F600E4800B01020408102040809003F6E47EA1
:10010600019360BCA3FF543F30E509541FFEE493FE
:10011600A360010ECF54C025E060A840B8E493A3C5
:10012600FAE493A3F8E493A3C8C582C8CAC583CAF0
:10013600F0A3C8C582C8CAC583CADFE9DEE780BEA8
:0103F9000003
:00000001FF
