:10020F001202FB120346E4F5A0E525B40D0575A017
:0D021F00FE80F6E525B402F175A0FD80EC2F
:030023000200BA1E
:1000BA00C0E0C0F0C083C082C0D075D000C000C00C
:1000CA0001C002C003C004C005C006C007309819A9
:1000DA00859925AF2512033EE525FB7A00750C02AA
:1000EA007D017F01120148C298D007D006D005D001
:1000FA0004D003D002D001D000D0D0D082D083D097
:04010A00F0D0E0321F
:1002E600EF1FAC0670011E4C600A7D027CEFDCFE3F
:0402F600DDFC80ECBF
:0102FA0022E1
:1002490043878075985053890F438920758BD075E2
:0B0259008DD0C2ABD28ED2AFD2AC224F
:1002640043878075985053890F438920758BE875AF
:0B0274008DE8C2ABD28ED2AFD2AC221C
:10027F0075985043878053890F438920758BF47588
:0B028F008DF4C2ABD28ED2AFD2AC22F5
:10029A0043878075985053890F438920758BFA7567
:0B02AA008DFAC2ABD28ED2AFD2AC22D4
:1002B50043878075985053890F438920758BF37553
:0B02C5008DF3C2ABD28ED2AFD2AC22C0
:030346000202B5FB
:08033E008F993099FDC299224C
:06030F00C2A58F80D2A7F9
:080315007F027EEFDEFEDFFC3B
:01031D0022BD
:0A032A00C2A612030FC2A7020315BA
:10000300CFCDCFCECCCE1200657C007D0A12006529
:04001300ED2430FFA9
:0A001700D2A612030FC2A7020315C0
:1002D000AE07BE0104ED148006BE0209ED243F44C2
:0602E00080FF12032A2238
:1002FB007F3812032A7F0C12032A7F0612032A7FF0
:04030B000102032ABE
:0A033400AC031202D0AF0402001760
:0601EC008B228A23892406
:1001F2001202D0E4FDAB22AA23A9248D82758300CA
:0C020200120026FF60061200170D80E9B4
:01020E0022CD
:0C01B9007F0AEA24FFFDE434FFFC7E0016
:0801C5008E0D8F0E8C0F8D10C2
:1001CD007F017E00E4FBEBC39510E50F6480F874AE
:0E01DD008098500AAC0DAD0E1200530B80E856
:0101EB0022F1
:04022C008A1A8B1B84
:100230001202D0AA1CEAD39400400D1201B9AC1AE4
:08024000AD1B1200031A80ED52
:010248002293
:10010E001202D0C3EA64809480400B7F2B1200173A
:10011E008A168B17800E7F2D120017C3E49BF517DE
:10012E00E49AF516AA15EAD39400400D1201B9AC63
:09013E0016AD171200031A80ED42
:010147002295
:040148008A0A8B0B89
:10014C001202D0AA0CEAD3940040297F101201BBF2
:10015C00AC0AAD0BCFCDCFCECCCE120065EF540F89
:10016C00FEC3940AEE5004243080022437FF1200A0
:04017C00171A80D1FD
:01018000225C
:040181008A1F8B2026
:100185001202D0AA21EAD394004028EA24FFFDE414
:1001950034FFFC7F027E001201C5AC1FAD20CFCD20
:1001A500CFCECCCE120065EF54012430FF120017DC
:0301B5001A80D2DB
:0101B8002224
:0300000002031EDA
:0C031E00787FE4F6D8FD75812502020FFF
:10002600BB010CE58229F582E5833AF583E022508F
:1000360006E92582F8E622BBFE06E92582F8E222D9
:0D004600E58229F582E5833AF583E49322F3
:10005300EF8DF0A4A8F0CF8CF0A428CE8DF0A42EC1
:02006300FE227B
:10006500BC000BBE0029EF8DF084FFADF022E4CC7F
:10007500F875F008EF2FFFEE33FEEC33FCEE9DEC48
:10008500984005FCEE9DFE0FD5F0E9E4CEFD22ED8E
:10009500F8F5F0EE8420D21CFEADF075F008EF2FD8
:1000A500FFED33FD4007985006D5F0F222C398FDC9
:0500B5000FD5F0EA2266
:00000001FF
