:100D2D00610062006300640048656C6C6F776F72E0
:100D3D006C6421004D7946697273744F4C45445073
:100D4D00726F670042795354433132433541363027
:100D5D00533200323032322E30392E3133004920A9
:100D6D005400302E393627204F4C45440041534313
:0A0D7D0049493A00434F44453A004B
:030FFF000130209E
:100FA00012089B7FD07E07120F8A120F1D120DD6DA
:020FB00080FBC4
:100D87007BFF7A0D792D750F01E4FDFF120E1B7B9A
:100D9700FF7A0D792D750F01E4FD7F08120E1B7B7D
:100DA700FF7A0D792F750F017D01E4FF120E1B7B72
:100DB700FF7A0D7931750F017D02E4FF120E1B7B5F
:0F0DC700FF7A0D7933750F017D03E4FF020E1BD8
:100DD6007508007509107BFF7A0D793585090FE4D2
:100DE600FDFF120E1B7BFF7A0D794185090F7D02EF
:100DF600E4FF120E1B7BFF7A0D795185090F7D04E6
:100E0600E4FF120E1B7BFF7A0D796085090F7D06C4
:050E1600E4FF020E1BC9
:100B59007BFF7A0D796B750F10E4FDFF120E1BE414
:100B6900FBFD7F1E120C547B01E4FD7F30120C54F7
:100B79007BFF7A0D796F750F107D03E4FF120E1B51
:100B89007BFF7A0D797A750F107D06E4FF120E1B33
:100B99007BFF7A0D7981750F107D067F3F120E1B41
:100BA900751410AB307D067F3012097B0530E530B6
:100BB900D3947E4003753020E530FB7A0075250318
:100BC9007526107D067F67120BDA7F0A7E00020FF9
:010BD9008A91
:100003000000000000000000002F000000000700B7
:10001300070000147F147F1400242A7F2A12006231
:1000230064081323003649552250000005030000DD
:1000330000001C224100000041221C000014083E65
:1000430008140008083E0808000000A0600000082B
:10005300080808080000606000000020100804027F
:10006300003E5149453E0000427F4000004261513D
:100073004946002141454B31001814127F100027D7
:1000830045454539003C4A4949300001710905039A
:1000930000364949493600064949291E00003636CB
:1000A300000000005636000000081422410000142E
:1000B300141414140000412214080002015109060B
:1000C30000324959513E007C1211127C007F49498C
:1000D3004936003E41414122007F4141221C007FBD
:1000E30049494941007F09090901003E4149497ACB
:1000F300007F0808087F0000417F41000020404145
:100103003F01007F08142241007F40404040007FB0
:10011300020C027F007F0408107F003E4141413EF4
:10012300007F09090906003E4151215E007F09193C
:1001330029460046494949310001017F0101003F39
:100143004040403F001F2040201F003F4038403FB9
:10015300006314081463000708700807006151491D
:10016300454300007F41410000552A552A550000B0
:1001730041417F000004020102040040404040402E
:10018300000001020400002054545478007F4844C6
:10019300443800384444442000384444487F0038FD
:1001A3005454541800087E0901020018A4A4A47C26
:1001B300007F080404780000447D400000408084F0
:1001C3007D00007F102844000000417F4000007C38
:1001D30004180478007C0804047800384444443844
:1001E30000FC242424180018242418FC007C080490
:1001F300040800485454542000043F444020003C69
:100203004040207C001C2040201C003C4030403CEF
:10021300004428102844001CA0A0A07C004464547F
:100223004C441414141414140000000000000000C3
:100233000000000000000000000000F800000000C3
:10024300000000333000000000100C06100C060004
:10025300000000000000000040C07840C07840006B
:10026300043F04043F040400007088FC08300000CD
:10027300001820FF211E0000F008F000E018000025
:1002830000211C031E211E0000F0088870000000DE
:100293001E2123241927211010160E000000000030
:1002A3000000000000000000000000E0180402004D
:1002B300000000071820400000020418E0000000BE
:1002C3000040201807000000404080F080404000BC
:1002D3000202010F01020200000000F00000000012
:1002E3000101011F010101000000000000000000E6
:1002F30080B070000000000000000000000000005B
:1003030000010101010101010000000000000000E3
:10031300003030000000000000000000806018047E
:10032300006018060100000000E010080810E0005B
:10033300000F102020100F00001010F80000000024
:100343000020203F2020000000700808088870006B
:1003530000302824222130000030088888483000EB
:100363000018202020110E000000C02010F800000B
:1003730000070424243F240000F8088888080800A4
:100383000019212020110E0000E0108888180000B9
:10039300000F112020110E0000380808C83808008B
:1003A3000000003F0000000000708808088870000B
:1003B300001C222121221C0000E010080810E0008C
:1003C3000000312222110F00000000C0C000000015
:1003D300000000303000000000000080000000003A
:1003E3000000806000000000000080402010080032
:1003F30000010204081020004040404040404000FB
:1004030004040404040404000008102040800000D5
:100413000020100804020100007048080808F000DA
:100423000000003036010000C030C828E810E000AA
:100433000718272423140B000000C038E000000035
:10044300203C23020227382008F88888887000009F
:10045300203F202020110E00C03008080808380073
:10046300071820202010080008F808080810E000EA
:10047300203F202020100F0008F88888E80810008B
:10048300203F20202320180008F88888E80810005F
:10049300203F200003000000C03008080838000097
:1004A30007182020221E020008F808000008F80898
:1004B300203F210101213F20000808F8080800001F
:1004C3000020203F2020000000000808F808080052
:1004D300C08080807F00000008F888C028180800CA
:1004E300203F20012638200008F808000000000003
:1004F300203F20202020300008F8F800F8F80800FA
:10050300203F003F003F200008F830C00008F808F3
:10051300203F200007183F00E01008080810E00003
:100523000F10202020100F0008F808080808F0001A
:10053300203F210101010000E01008080810E0003D
:100543000F18242438504F0008F8888888887000D2
:10055300203F2000030C3020007088080808380072
:100563000038202121221C00180808F80808180068
:100573000000203F2000000008F808000008F808E9
:10058300001F202020201F000878880000C838089A
:10059300000007380E010000F80800F80008F80012
:1005A300033C0700073C03000818688080681808AC
:1005B30020302C03032C30200838C800C83808002A
:1005C3000000203F2000000010080808C838080079
:1005D3002038262120201800000000FE020202001D
:1005E3000000007F40404000000C30C000000000CD
:1005F300000000010638C00000020202FE000000F5
:10060300004040407F00000000000402020204009A
:1006130000000000000000000000000000000000D7
:1006230080808080808080800002020400000000BF
:1006330000000000000000000000808080800000B7
:100643000019242222223F2008F8008080000000A5
:10065300003F112020110E00000000808080000068
:10066300000E112020201100000000808088F80077
:10067300000E112020103F200000808080800000A9
:10068300001F222222221300008080F0888888180D
:100693000020203F20200000000080808080800018
:1006A300006B94949493600008F8008080800000AD
:1006B300203F210000203F20008098980000000088
:1006C3000020203F202000000000008098980000B8
:1006D30000C08080807F000008F8000080808000D8
:1006E300203F24022D302000000808F800000000FD
:1006F3000020203F202000008080808080808000B8
:10070300203F20003F20003F808000808080000049
:10071300203F210000203F200000808080800000D7
:10072300001F202020201F00808000808000000008
:1007330080FFA12020110E00000000808080800037
:10074300000E112020A0FF80808080008080800028
:1007530020203F2120000100000080808080800055
:100763000033242424241900008080E080800000CA
:100773000000001F20200000808000000080800017
:10078300001F202020103F20808080000080808078
:1007930000010E3008060100808000800080808008
:1007A3000F300C030C300F0000808000808080002D
:1007B3000020312E0E312000808080000080808058
:1007C30080818E7018060100008080808080800008
:1007D3000021302C2221300000000000807C020226
:1007E30000000000003F404000000000FF00000048
:1007F30000000000FF0000000002027C80000000F7
:100803000040403F00000000000601010202040412
:100813000000000000000000202024242424BF64E2
:1008230024342824222020000000000000000000BF
:100833000000000000000000100804023F4544448B
:100843004242424178000000000000000000000026
:1008530000000000000000000022261A92027E80A1
:1008630022261A12027E0000000000000000000091
:100873000000000000000000080402FF5555555514
:100883007F55555555410000000000000000000051
:0808930000000000000000005D
:100F3D00D3EF9400EE940040147D657C18ED1D7088
:0D0F4D00011CED4C70F7EF1F70E61E80E3F5
:010F5A002274
:100F8A00EF1FAA0670011E4A600BE4FDEDC3947BB5
:050F9A0050EE0D80F790
:010F9F00222F
:090FEF00D296D297C297C2962255
:070FF800D296C297D29722A6
:0B0FC300120EBA120FCEAF04120EBACD
:050FCE00D296C296223C
:070EB300AC07120FEF7F787E
:100EBA00C296E4FEAD07530580BD8004D297800236
:0E0ECA00C297EF25E0FFD296C2960EBE08E654
:010ED80022F7
:0E0FD300120EB3120FCEE4FF120FC3020FF87E
:0E0FE100120EB3120FCE7F40120FC3020FF894
:100E5B00E924B0FFE433FEE4FDFC120E76E4FDFC66
:0B0E6B00FFFE120E767F10E4FDFCFE7F
:100E7600AB07AA06ED4C6003020FE1AF03120FD3D6
:010E86002249
:020ED9008F2E5A
:100EDB00E4F9120E5BE4F52FAF2E7E007D017C0052
:100EEB00120E76052FE52FC3948040EC09B908E26A
:010EFB0022D4
:100E8700A907ED24B0FFE433FEE4FDFC120E76E97A
:100E970054F0C4540F7E004410FFE4FDFC120E769C
:0C0EA700E9540FFF7E00E4FDFC020E7613
:100F73007F8D120E72E4FDFC7F14FE120E76E4FDEB
:070F8300FC7FAFFE020E76B9
:100FB200E4FDFC7F8D120E6CE4FDFC7FAEFE020EA2
:010FC20076B8
:100F1D00E4F9120E5BE4F5087D017C00E4FFFE129E
:0F0F2D000E760508E508C3948040ED09B908E386
:010F3C002292
:100EFC00E4F9120E5BE4F5317D017C007F017E008C
:100F0C00120E760531E531C3948040EC09B908E244
:010F1C0022B2
:04097B008F118D1239
:10097F00E4F515F9EB24E0F515E511D3947F400765
:10098F00E4F51105120512E51464107069AD12AF8C
:10099F0011120E87E4F975F010E515A429F582E41C
:1009AF0035F0F583E582242BF582E5833402F58358
:1009BF00E493FF7E007D017C00120E7609B908D604
:1009CF00E51204FDAF11120E87E4F975F010E5156D
:1009DF00A429F582E435F0F583E5822433F582E529
:1009EF00833402F583E493FF7E007D017C00120EB9
:1009FF007609B908D622AD12AF11120E87E4F97538
:100A0F00F006E515A42403F582E5F03400F583E53F
:100A1F008229F582E43583F583E493FF7E007D011F
:090A2F007C00120E7609B906D60E
:010A3800229B
:040F5B008F32A90523
:100F5F007F017E00AD0119ED6009AD327C00120AF0
:030F6F006680F1A8
:010F7200225C
:080BDA008F218D228A238B2458
:100BE200E4F529F527E527C395255065C3E5259545
:100BF2002714FD7F0A120F5BAC23AD24CFCDCFCEDD
:100C0200CCCE120A787C007D0A120A788D28E5295A
:100C12007023E52514FFE527C39F5019E5287012BC
:100C2200E526C3138527F0A42521FF8526147B2002
:100C32008016752901E526C3138527F0A42521FF17
:100C4200E5282430FB852614AD2212097B05278076
:010C5200940D
:010C5300227E
:0A0E1B008F0A8D0B8B0C8A0D890ED7
:100E2500E4F510AB0CAA0DA90E851082758300128E
:100E35000A39FB6020850F14AD0BAF0A12097B74CC
:100E450008250AF50AD394784007E4F50A050B0549
:050E55000B051080CE2A
:010E5A002275
:060C54008F2A8D2B8B2C72
:100C5A00E4F52D120E87E4F9E52C75F040A4241B67
:100C6A00F582E43408F583E58229F582E43583F5D3
:100C7A0083E493FF7E007D017C00120E76052D0928
:100C8A00B910D5E52B04FDAF2A120E87E4F9E52C3D
:100C9A0075F040A4243BF582E43408F583E5822903
:100CAA00F582E43583F583E493FF7E007D017C00C1
:090CBA00120E76052D09B910D5C2
:010CC300220E
:040CC4008F168B18E4
:100CC800E4F51DF51EE5195407700BE51913131308
:100CD800541FF520800AE519131313541F04F52037
:100CE8008D20E520C39519503BAD20AF16120E8715
:100CF80085161FE51FC395185026AB1AAA1BA91CF9
:100D0800051EE51EAE1D7002051D14F5828E8312A8
:100D18000A39FF7E007D017C00120E76051F80D304
:040D2800052080BE64
:010D2C0022A4
:10089B00E4FDFC7FAEFE120E65E4FDFC7F40FE1214
:1008AB000E76E4FDFC7FB0FE120E76E4FDFC7F813C
:1008BB00FE120E76E4FDFC7FFFFE120E76E4FDFCCD
:1008CB007FA1FE120E76E4FDFC7FA6FE120E76E4EF
:1008DB00FDFC7FA8FE120E76E4FDFC7F3FFE120EA0
:1008EB0076E4FDFC7FC8FE120E76E4FDFC7FD3FEA2
:1008FB00120E76E4FDFCFFFE120E76E4FDFC7FD5B6
:10090B00FE120E76E4FDFC7F80FE120E76E4FDFCFB
:10091B007FD8FE120E76E4FDFC7F05FE120E76E408
:10092B00FDFC7FD9FE120E76E4FDFC7FF1FE120E6C
:10093B0076E4FDFC7FDAFE120E76E4FDFC7F12FE00
:10094B00120E76E4FDFC7FDBFE120E76E4FDFC7FDF
:10095B0030FE120E76E4FDFC7F8DFE120E76E4FD6A
:10096B00FC7F14FE120E76E4FDFC7FAFFE020E76CA
:03000000020ACD24
:0C0ACD00787FE4F6D8FD758132020B142E
:100A3900BB010CE58229F582E5833AF583E0225072
:100A490006E92582F8E622BBFE06E92582F8E222BC
:0D0A5900E58229F582E5833AF583E49322D6
:100A6600EF8DF0A4A8F0CF8CF0A428CE8DF0A42EA4
:020A7600FE225E
:100A7800BC000BBE0029EF8DF084FFADF022E4CC62
:100A8800F875F008EF2FFFEE33FEEC33FCEE9DEC2B
:100A9800984005FCEE9DFE0FD5F0E9E4CEFD22ED71
:100AA800F8F5F0EE8420D21CFEADF075F008EF2FBB
:100AB800FFED33FD4007985006D5F0F222C398FDAC
:050AC8000FD5F0EA2249
:100AD900020FA0E493A3F8E493A34003F68001F284
:100AE90008DFF48029E493A3F85407240CC8C3331E
:100AF900C4540F4420C8834004F456800146F6DFED
:100B0900E4800B0102040810204080900FFFE47E6E
:100B1900019360BCA3FF543F30E509541FFEE493E1
:100B2900A360010ECF54C025E060A840B8E493A3A8
:100B3900FAE493A3F8E493A3C8C582C8CAC583CAD3
:100B4900F0A3C8C582C8CAC583CADFE9DEE780BE8B
:0110020000ED
:00000001FF
